{"contracts/PostSevaComplaints.sol":{"PostSevaComplaints":{"abi":[{"inputs":[],"stateMutability":"nonpayable","type":"constructor"},{"anonymous":false,"inputs":[{"indexed":false,"internalType":"uint256","name":"complaintId","type":"uint256"},{"indexed":false,"internalType":"string","name":"citizen","type":"string"},{"indexed":false,"internalType":"string","name":"description","type":"string"},{"indexed":false,"internalType":"string","name":"postOfficeCode","type":"string"}],"name":"ComplaintFiled","type":"event"},{"anonymous":false,"inputs":[{"indexed":false,"internalType":"uint256","name":"complaintId","type":"uint256"},{"indexed":false,"internalType":"enum PostSevaComplaints.Status","name":"status","type":"uint8"}],"name":"ComplaintUpdated","type":"event"},{"anonymous":false,"inputs":[{"indexed":false,"internalType":"uint256","name":"complaintId","type":"uint256"},{"indexed":false,"internalType":"string","name":"feedbackAuthor","type":"string"},{"indexed":false,"internalType":"string","name":"feedback","type":"string"}],"name":"FeedbackAdded","type":"event"},{"anonymous":false,"inputs":[{"indexed":false,"internalType":"uint256","name":"complaintId","type":"uint256"},{"indexed":false,"internalType":"string","name":"staffName","type":"string"}],"name":"StaffAssigned","type":"event"},{"inputs":[{"internalType":"uint256","name":"_complaintId","type":"uint256"},{"internalType":"string","name":"_feedbackAuthor","type":"string"},{"internalType":"string","name":"_feedback","type":"string"}],"name":"addFeedback","outputs":[],"stateMutability":"nonpayable","type":"function"},{"inputs":[{"internalType":"uint256","name":"_complaintId","type":"uint256"},{"internalType":"string","name":"_staffName","type":"string"}],"name":"assignStaff","outputs":[],"stateMutability":"nonpayable","type":"function"},{"inputs":[{"internalType":"string","name":"_citizen","type":"string"},{"internalType":"string","name":"_description","type":"string"},{"internalType":"string","name":"_postOfficeCode","type":"string"}],"name":"fileComplaint","outputs":[],"stateMutability":"nonpayable","type":"function"},{"inputs":[],"name":"getAllComplaints","outputs":[{"components":[{"internalType":"uint256","name":"id","type":"uint256"},{"internalType":"string","name":"citizen","type":"string"},{"internalType":"string","name":"description","type":"string"},{"internalType":"enum PostSevaComplaints.Status","name":"status","type":"uint8"},{"internalType":"string","name":"staffName","type":"string"},{"internalType":"string","name":"postOfficeCode","type":"string"},{"internalType":"uint256","name":"timestamp","type":"uint256"},{"internalType":"string","name":"feedbackAuthor","type":"string"},{"internalType":"string","name":"feedback","type":"string"}],"internalType":"struct PostSevaComplaints.Complaint[]","name":"","type":"tuple[]"}],"stateMutability":"view","type":"function"},{"inputs":[{"internalType":"uint256","name":"_complaintId","type":"uint256"}],"name":"getComplaint","outputs":[{"internalType":"uint256","name":"id","type":"uint256"},{"internalType":"string","name":"citizen","type":"string"},{"internalType":"string","name":"description","type":"string"},{"internalType":"enum PostSevaComplaints.Status","name":"status","type":"uint8"},{"internalType":"string","name":"staffName","type":"string"},{"internalType":"string","name":"postOfficeCode","type":"string"},{"internalType":"uint256","name":"timestamp","type":"uint256"},{"internalType":"string","name":"feedbackAuthor","type":"string"},{"internalType":"string","name":"feedback","type":"string"}],"stateMutability":"view","type":"function"},{"inputs":[],"name":"getComplaintCount","outputs":[{"internalType":"uint256","name":"","type":"uint256"}],"stateMutability":"view","type":"function"},{"inputs":[],"name":"postOfficeAdmin","outputs":[{"internalType":"address","name":"","type":"address"}],"stateMutability":"view","type":"function"},{"inputs":[{"internalType":"uint256","name":"_complaintId","type":"uint256"},{"internalType":"enum PostSevaComplaints.Status","name":"_status","type":"uint8"}],"name":"updateComplaintStatus","outputs":[],"stateMutability":"nonpayable","type":"function"}],"evm":{"bytecode":{"linkReferences":{},"object":"608060405260008055348015601357600080fd5b5033600260006101000a81548173ffffffffffffffffffffffffffffffffffffffff021916908373ffffffffffffffffffffffffffffffffffffffff1602179055506122a9806100646000396000f3fe608060405234801561001057600080fd5b50600436106100885760003560e01c8063b944bd0f1161005b578063b944bd0f14610101578063dee8ae431461011f578063e98b742814610157578063f1d1c0971461017357610088565b80630dac95391461008d5780632227454c146100ab5780638896cb81146100c7578063b608c9e6146100e5575b600080fd5b61009561018f565b6040516100a291906114f0565b60405180910390f35b6100c560048036038101906100c0919061165b565b610619565b005b6100cf6108a2565b6040516100dc9190611711565b60405180910390f35b6100ff60048036038101906100fa9190611758565b6108ab565b005b610109610a16565b6040516101169190611824565b60405180910390f35b6101396004803603810190610134919061183f565b610a3c565b60405161014e999897969594939291906118c5565b60405180910390f35b610171600480360381019061016c919061197c565b610ed2565b005b61018d600480360381019061018891906119fd565b611062565b005b60606000805467ffffffffffffffff8111156101ae576101ad611530565b5b6040519080825280602002602001820160405280156101e757816020015b6101d46111c8565b8152602001906001900390816101cc5790505b5090506000600190505b60005481116106115760016000828152602001908152602001600020604051806101200160405290816000820154815260200160018201805461023390611a6c565b80601f016020809104026020016040519081016040528092919081815260200182805461025f90611a6c565b80156102ac5780601f10610281576101008083540402835291602001916102ac565b820191906000526020600020905b81548152906001019060200180831161028f57829003601f168201915b505050505081526020016002820180546102c590611a6c565b80601f01602080910402602001604051908101604052809291908181526020018280546102f190611a6c565b801561033e5780601f106103135761010080835404028352916020019161033e565b820191906000526020600020905b81548152906001019060200180831161032157829003601f168201915b505050505081526020016003820160009054906101000a900460ff16600581111561036c5761036b6112fb565b5b600581111561037e5761037d6112fb565b5b815260200160048201805461039290611a6c565b80601f01602080910402602001604051908101604052809291908181526020018280546103be90611a6c565b801561040b5780601f106103e05761010080835404028352916020019161040b565b820191906000526020600020905b8154815290600101906020018083116103ee57829003601f168201915b5050505050815260200160058201805461042490611a6c565b80601f016020809104026020016040519081016040528092919081815260200182805461045090611a6c565b801561049d5780601f106104725761010080835404028352916020019161049d565b820191906000526020600020905b81548152906001019060200180831161048057829003601f168201915b50505050508152602001600682015481526020016007820180546104c090611a6c565b80601f01602080910402602001604051908101604052809291908181526020018280546104ec90611a6c565b80156105395780601f1061050e57610100808354040283529160200191610539565b820191906000526020600020905b81548152906001019060200180831161051c57829003601f168201915b5050505050815260200160088201805461055290611a6c565b80601f016020809104026020016040519081016040528092919081815260200182805461057e90611a6c565b80156105cb5780601f106105a0576101008083540402835291602001916105cb565b820191906000526020600020905b8154815290600101906020018083116105ae57829003601f168201915b505050505081525050826001836105e29190611acc565b815181106105f3576105f2611b00565b5b6020026020010181905250808061060990611b2f565b9150506101f1565b508091505090565b600083511161065d576040517f08c379a000000000000000000000000000000000000000000000000000000000815260040161065490611bc3565b60405180910390fd5b60008251116106a1576040517f08c379a000000000000000000000000000000000000000000000000000000000815260040161069890611c2f565b60405180910390fd5b60008151116106e5576040517f08c379a00000000000000000000000000000000000000000000000000000000081526004016106dc90611c9b565b60405180910390fd5b6000808154809291906106f790611b2f565b91905055506040518061012001604052806000548152602001848152602001838152602001600360058111156107305761072f6112fb565b5b81526020016040518060200160405280600081525081526020018281526020014281526020016040518060200160405280600081525081526020016040518060200160405280600081525081525060016000805481526020019081526020016000206000820151816000015560208201518160010190816107b19190611e67565b5060408201518160020190816107c79190611e67565b5060608201518160030160006101000a81548160ff021916908360058111156107f3576107f26112fb565b5b0217905550608082015181600401908161080d9190611e67565b5060a08201518160050190816108239190611e67565b5060c0820151816006015560e08201518160070190816108439190611e67565b5061010082015181600801908161085a9190611e67565b509050507fa9df679afbc4995ad59e91c34de99af97402add9195c8f5f82f0be315fecc0596000548484846040516108959493929190611f39565b60405180910390a1505050565b60008054905090565b826000600160008381526020019081526020016000206006015403610905576040517f08c379a00000000000000000000000000000000000000000000000000000000081526004016108fc90611fdf565b60405180910390fd5b6000835111610949576040517f08c379a00000000000000000000000000000000000000000000000000000000081526004016109409061204b565b60405180910390fd5b600082511161098d576040517f08c379a0000000000000000000000000000000000000000000000000000000008152600401610984906120b7565b60405180910390fd5b826001600086815260200190815260200160002060070190816109b09190611e67565b50816001600086815260200190815260200160002060080190816109d49190611e67565b507fa2d9115cd41b6e1c8e233fc900665559ce7062b9f0b08141b53bb5861d16a329848484604051610a08939291906120d7565b60405180910390a150505050565b600260009054906101000a900473ffffffffffffffffffffffffffffffffffffffff1681565b600060608060006060806000606080896000600160008381526020019081526020016000206006015403610aa5576040517f08c379a0000000000000000000000000000000000000000000000000000000008152600401610a9c90611fdf565b60405180910390fd5b6000600160008d81526020019081526020016000206040518061012001604052908160008201548152602001600182018054610ae090611a6c565b80601f0160208091040260200160405190810160405280929190818152602001828054610b0c90611a6c565b8015610b595780601f10610b2e57610100808354040283529160200191610b59565b820191906000526020600020905b815481529060010190602001808311610b3c57829003601f168201915b50505050508152602001600282018054610b7290611a6c565b80601f0160208091040260200160405190810160405280929190818152602001828054610b9e90611a6c565b8015610beb5780601f10610bc057610100808354040283529160200191610beb565b820191906000526020600020905b815481529060010190602001808311610bce57829003601f168201915b505050505081526020016003820160009054906101000a900460ff166005811115610c1957610c186112fb565b5b6005811115610c2b57610c2a6112fb565b5b8152602001600482018054610c3f90611a6c565b80601f0160208091040260200160405190810160405280929190818152602001828054610c6b90611a6c565b8015610cb85780601f10610c8d57610100808354040283529160200191610cb8565b820191906000526020600020905b815481529060010190602001808311610c9b57829003601f168201915b50505050508152602001600582018054610cd190611a6c565b80601f0160208091040260200160405190810160405280929190818152602001828054610cfd90611a6c565b8015610d4a5780601f10610d1f57610100808354040283529160200191610d4a565b820191906000526020600020905b815481529060010190602001808311610d2d57829003601f168201915b5050505050815260200160068201548152602001600782018054610d6d90611a6c565b80601f0160208091040260200160405190810160405280929190818152602001828054610d9990611a6c565b8015610de65780601f10610dbb57610100808354040283529160200191610de6565b820191906000526020600020905b815481529060010190602001808311610dc957829003601f168201915b50505050508152602001600882018054610dff90611a6c565b80601f0160208091040260200160405190810160405280929190818152602001828054610e2b90611a6c565b8015610e785780601f10610e4d57610100808354040283529160200191610e78565b820191906000526020600020905b815481529060010190602001808311610e5b57829003601f168201915b5050505050815250509050806000015181602001518260400151836060015184608001518560a001518660c001518760e001518861010001519a509a509a509a509a509a509a509a509a5050509193959799909294969850565b600260009054906101000a900473ffffffffffffffffffffffffffffffffffffffff1673ffffffffffffffffffffffffffffffffffffffff163373ffffffffffffffffffffffffffffffffffffffff1614610f62576040517f08c379a0000000000000000000000000000000000000000000000000000000008152600401610f599061218e565b60405180910390fd5b816000600160008381526020019081526020016000206006015403610fbc576040517f08c379a0000000000000000000000000000000000000000000000000000000008152600401610fb390611fdf565b60405180910390fd5b6000825111611000576040517f08c379a0000000000000000000000000000000000000000000000000000000008152600401610ff7906121fa565b60405180910390fd5b816001600085815260200190815260200160002060040190816110239190611e67565b507f2c850769ba2794d7b52ea8e547f2d7536a1f39633ad0267673c709807ee98b05838360405161105592919061221a565b60405180910390a1505050565b600260009054906101000a900473ffffffffffffffffffffffffffffffffffffffff1673ffffffffffffffffffffffffffffffffffffffff163373ffffffffffffffffffffffffffffffffffffffff16146110f2576040517f08c379a00000000000000000000000000000000000000000000000000000000081526004016110e99061218e565b60405180910390fd5b81600060016000838152602001908152602001600020600601540361114c576040517f08c379a000000000000000000000000000000000000000000000000000000000815260040161114390611fdf565b60405180910390fd5b816001600085815260200190815260200160002060030160006101000a81548160ff02191690836005811115611185576111846112fb565b5b02179055507fc2daa0532d44d67167061530be45cf08aa66dcec7aea6aeb2888fed682e5f12b83836040516111bb92919061224a565b60405180910390a1505050565b604051806101200160405280600081526020016060815260200160608152602001600060058111156111fd576111fc6112fb565b5b815260200160608152602001606081526020016000815260200160608152602001606081525090565b600081519050919050565b600082825260208201905092915050565b6000819050602082019050919050565b6000819050919050565b61126581611252565b82525050565b600081519050919050565b600082825260208201905092915050565b60005b838110156112a557808201518184015260208101905061128a565b60008484015250505050565b6000601f19601f8301169050919050565b60006112cd8261126b565b6112d78185611276565b93506112e7818560208601611287565b6112f0816112b1565b840191505092915050565b7f4e487b7100000000000000000000000000000000000000000000000000000000600052602160045260246000fd5b6006811061133b5761133a6112fb565b5b50565b600081905061134c8261132a565b919050565b600061135c8261133e565b9050919050565b61136c81611351565b82525050565b60006101208301600083015161138b600086018261125c565b50602083015184820360208601526113a382826112c2565b915050604083015184820360408601526113bd82826112c2565b91505060608301516113d26060860182611363565b50608083015184820360808601526113ea82826112c2565b91505060a083015184820360a086015261140482826112c2565b91505060c083015161141960c086018261125c565b5060e083015184820360e086015261143182826112c2565b91505061010083015184820361010086015261144d82826112c2565b9150508091505092915050565b60006114668383611372565b905092915050565b6000602082019050919050565b600061148682611226565b6114908185611231565b9350836020820285016114a285611242565b8060005b858110156114de57848403895281516114bf858261145a565b94506114ca8361146e565b925060208a019950506001810190506114a6565b50829750879550505050505092915050565b6000602082019050818103600083015261150a818461147b565b905092915050565b6000604051905090565b600080fd5b600080fd5b600080fd5b600080fd5b7f4e487b7100000000000000000000000000000000000000000000000000000000600052604160045260246000fd5b611568826112b1565b810181811067ffffffffffffffff8211171561158757611586611530565b5b80604052505050565b600061159a611512565b90506115a6828261155f565b919050565b600067ffffffffffffffff8211156115c6576115c5611530565b5b6115cf826112b1565b9050602081019050919050565b82818337600083830152505050565b60006115fe6115f9846115ab565b611590565b90508281526020810184848401111561161a5761161961152b565b5b6116258482856115dc565b509392505050565b600082601f83011261164257611641611526565b5b81356116528482602086016115eb565b91505092915050565b6000806000606084860312156116745761167361151c565b5b600084013567ffffffffffffffff81111561169257611691611521565b5b61169e8682870161162d565b935050602084013567ffffffffffffffff8111156116bf576116be611521565b5b6116cb8682870161162d565b925050604084013567ffffffffffffffff8111156116ec576116eb611521565b5b6116f88682870161162d565b9150509250925092565b61170b81611252565b82525050565b60006020820190506117266000830184611702565b92915050565b61173581611252565b811461174057600080fd5b50565b6000813590506117528161172c565b92915050565b6000806000606084860312156117715761177061151c565b5b600061177f86828701611743565b935050602084013567ffffffffffffffff8111156117a05761179f611521565b5b6117ac8682870161162d565b925050604084013567ffffffffffffffff8111156117cd576117cc611521565b5b6117d98682870161162d565b9150509250925092565b600073ffffffffffffffffffffffffffffffffffffffff82169050919050565b600061180e826117e3565b9050919050565b61181e81611803565b82525050565b60006020820190506118396000830184611815565b92915050565b6000602082840312156118555761185461151c565b5b600061186384828501611743565b91505092915050565b600082825260208201905092915050565b60006118888261126b565b611892818561186c565b93506118a2818560208601611287565b6118ab816112b1565b840191505092915050565b6118bf81611351565b82525050565b6000610120820190506118db600083018c611702565b81810360208301526118ed818b61187d565b90508181036040830152611901818a61187d565b905061191060608301896118b6565b8181036080830152611922818861187d565b905081810360a0830152611936818761187d565b905061194560c0830186611702565b81810360e0830152611957818561187d565b905081810361010083015261196c818461187d565b90509a9950505050505050505050565b600080604083850312156119935761199261151c565b5b60006119a185828601611743565b925050602083013567ffffffffffffffff8111156119c2576119c1611521565b5b6119ce8582860161162d565b9150509250929050565b600681106119e557600080fd5b50565b6000813590506119f7816119d8565b92915050565b60008060408385031215611a1457611a1361151c565b5b6000611a2285828601611743565b9250506020611a33858286016119e8565b9150509250929050565b7f4e487b7100000000000000000000000000000000000000000000000000000000600052602260045260246000fd5b60006002820490506001821680611a8457607f821691505b602082108103611a9757611a96611a3d565b5b50919050565b7f4e487b7100000000000000000000000000000000000000000000000000000000600052601160045260246000fd5b6000611ad782611252565b9150611ae283611252565b9250828203905081811115611afa57611af9611a9d565b5b92915050565b7f4e487b7100000000000000000000000000000000000000000000000000000000600052603260045260246000fd5b6000611b3a82611252565b91507fffffffffffffffffffffffffffffffffffffffffffffffffffffffffffffffff8203611b6c57611b6b611a9d565b5b600182019050919050565b7f436974697a656e2063616e6e6f7420626520656d707479000000000000000000600082015250565b6000611bad60178361186c565b9150611bb882611b77565b602082019050919050565b60006020820190508181036000830152611bdc81611ba0565b9050919050565b7f4465736372697074696f6e2063616e6e6f7420626520656d7074790000000000600082015250565b6000611c19601b8361186c565b9150611c2482611be3565b602082019050919050565b60006020820190508181036000830152611c4881611c0c565b9050919050565b7f506f7374206f666669636520636f64652063616e6e6f7420626520656d707479600082015250565b6000611c8560208361186c565b9150611c9082611c4f565b602082019050919050565b60006020820190508181036000830152611cb481611c78565b9050919050565b60008190508160005260206000209050919050565b60006020601f8301049050919050565b600082821b905092915050565b600060088302611d1d7fffffffffffffffffffffffffffffffffffffffffffffffffffffffffffffffff82611ce0565b611d278683611ce0565b95508019841693508086168417925050509392505050565b6000819050919050565b6000611d64611d5f611d5a84611252565b611d3f565b611252565b9050919050565b6000819050919050565b611d7e83611d49565b611d92611d8a82611d6b565b848454611ced565b825550505050565b600090565b611da7611d9a565b611db2818484611d75565b505050565b5b81811015611dd657611dcb600082611d9f565b600181019050611db8565b5050565b601f821115611e1b57611dec81611cbb565b611df584611cd0565b81016020851015611e04578190505b611e18611e1085611cd0565b830182611db7565b50505b505050565b600082821c905092915050565b6000611e3e60001984600802611e20565b1980831691505092915050565b6000611e578383611e2d565b9150826002028217905092915050565b611e708261126b565b67ffffffffffffffff811115611e8957611e88611530565b5b611e938254611a6c565b611e9e828285611dda565b600060209050601f831160018114611ed15760008415611ebf578287015190505b611ec98582611e4b565b865550611f31565b601f198416611edf86611cbb565b60005b82811015611f0757848901518255600182019150602085019450602081019050611ee2565b86831015611f245784890151611f20601f891682611e2d565b8355505b6001600288020188555050505b505050505050565b6000608082019050611f4e6000830187611702565b8181036020830152611f60818661187d565b90508181036040830152611f74818561187d565b90508181036060830152611f88818461187d565b905095945050505050565b7f436f6d706c61696e7420646f6573206e6f742065786973740000000000000000600082015250565b6000611fc960188361186c565b9150611fd482611f93565b602082019050919050565b60006020820190508181036000830152611ff881611fbc565b9050919050565b7f466565646261636b20617574686f722063616e6e6f7420626520656d70747900600082015250565b6000612035601f8361186c565b915061204082611fff565b602082019050919050565b6000602082019050818103600083015261206481612028565b9050919050565b7f466565646261636b2063616e6e6f7420626520656d7074790000000000000000600082015250565b60006120a160188361186c565b91506120ac8261206b565b602082019050919050565b600060208201905081810360008301526120d081612094565b9050919050565b60006060820190506120ec6000830186611702565b81810360208301526120fe818561187d565b90508181036040830152612112818461187d565b9050949350505050565b7f4f6e6c79207468652061646d696e2063616e20706572666f726d20746869732060008201527f616374696f6e0000000000000000000000000000000000000000000000000000602082015250565b600061217860268361186c565b91506121838261211c565b604082019050919050565b600060208201905081810360008301526121a78161216b565b9050919050565b7f5374616666206e616d652063616e6e6f7420626520656d707479000000000000600082015250565b60006121e4601a8361186c565b91506121ef826121ae565b602082019050919050565b60006020820190508181036000830152612213816121d7565b9050919050565b600060408201905061222f6000830185611702565b8181036020830152612241818461187d565b90509392505050565b600060408201905061225f6000830185611702565b61226c60208301846118b6565b939250505056fea2646970667358221220a4033ec7e3f80c668bc926d2ad8aab98f3acdcfcb788904eb6e1addb3ee025fb64736f6c634300081b0033","opcodes":"PUSH1 0x80 PUSH1 0x40 MSTORE PUSH1 0x0 DUP1 SSTORE CALLVALUE DUP1 ISZERO PUSH1 0x13 JUMPI PUSH1 0x0 DUP1 REVERT JUMPDEST POP CALLER PUSH1 0x2 PUSH1 0x0 PUSH2 0x100 EXP DUP2 SLOAD DUP2 PUSH20 0xFFFFFFFFFFFFFFFFFFFFFFFFFFFFFFFFFFFFFFFF MUL NOT AND SWAP1 DUP4 PUSH20 0xFFFFFFFFFFFFFFFFFFFFFFFFFFFFFFFFFFFFFFFF AND MUL OR SWAP1 SSTORE POP PUSH2 0x22A9 DUP1 PUSH2 0x64 PUSH1 0x0 CODECOPY PUSH1 0x0 RETURN INVALID PUSH1 0x80 PUSH1 0x40 MSTORE CALLVALUE DUP1 ISZERO PUSH2 0x10 JUMPI PUSH1 0x0 DUP1 REVERT JUMPDEST POP PUSH1 0x4 CALLDATASIZE LT PUSH2 0x88 JUMPI PUSH1 0x0 CALLDATALOAD PUSH1 0xE0 SHR DUP1 PUSH4 0xB944BD0F GT PUSH2 0x5B JUMPI DUP1 PUSH4 0xB944BD0F EQ PUSH2 0x101 JUMPI DUP1 PUSH4 0xDEE8AE43 EQ PUSH2 0x11F JUMPI DUP1 PUSH4 0xE98B7428 EQ PUSH2 0x157 JUMPI DUP1 PUSH4 0xF1D1C097 EQ PUSH2 0x173 JUMPI PUSH2 0x88 JUMP JUMPDEST DUP1 PUSH4 0xDAC9539 EQ PUSH2 0x8D JUMPI DUP1 PUSH4 0x2227454C EQ PUSH2 0xAB JUMPI DUP1 PUSH4 0x8896CB81 EQ PUSH2 0xC7 JUMPI DUP1 PUSH4 0xB608C9E6 EQ PUSH2 0xE5 JUMPI JUMPDEST PUSH1 0x0 DUP1 REVERT JUMPDEST PUSH2 0x95 PUSH2 0x18F JUMP JUMPDEST PUSH1 0x40 MLOAD PUSH2 0xA2 SWAP2 SWAP1 PUSH2 0x14F0 JUMP JUMPDEST PUSH1 0x40 MLOAD DUP1 SWAP2 SUB SWAP1 RETURN JUMPDEST PUSH2 0xC5 PUSH1 0x4 DUP1 CALLDATASIZE SUB DUP2 ADD SWAP1 PUSH2 0xC0 SWAP2 SWAP1 PUSH2 0x165B JUMP JUMPDEST PUSH2 0x619 JUMP JUMPDEST STOP JUMPDEST PUSH2 0xCF PUSH2 0x8A2 JUMP JUMPDEST PUSH1 0x40 MLOAD PUSH2 0xDC SWAP2 SWAP1 PUSH2 0x1711 JUMP JUMPDEST PUSH1 0x40 MLOAD DUP1 SWAP2 SUB SWAP1 RETURN JUMPDEST PUSH2 0xFF PUSH1 0x4 DUP1 CALLDATASIZE SUB DUP2 ADD SWAP1 PUSH2 0xFA SWAP2 SWAP1 PUSH2 0x1758 JUMP JUMPDEST PUSH2 0x8AB JUMP JUMPDEST STOP JUMPDEST PUSH2 0x109 PUSH2 0xA16 JUMP JUMPDEST PUSH1 0x40 MLOAD PUSH2 0x116 SWAP2 SWAP1 PUSH2 0x1824 JUMP JUMPDEST PUSH1 0x40 MLOAD DUP1 SWAP2 SUB SWAP1 RETURN JUMPDEST PUSH2 0x139 PUSH1 0x4 DUP1 CALLDATASIZE SUB DUP2 ADD SWAP1 PUSH2 0x134 SWAP2 SWAP1 PUSH2 0x183F JUMP JUMPDEST PUSH2 0xA3C JUMP JUMPDEST PUSH1 0x40 MLOAD PUSH2 0x14E SWAP10 SWAP9 SWAP8 SWAP7 SWAP6 SWAP5 SWAP4 SWAP3 SWAP2 SWAP1 PUSH2 0x18C5 JUMP JUMPDEST PUSH1 0x40 MLOAD DUP1 SWAP2 SUB SWAP1 RETURN JUMPDEST PUSH2 0x171 PUSH1 0x4 DUP1 CALLDATASIZE SUB DUP2 ADD SWAP1 PUSH2 0x16C SWAP2 SWAP1 PUSH2 0x197C JUMP JUMPDEST PUSH2 0xED2 JUMP JUMPDEST STOP JUMPDEST PUSH2 0x18D PUSH1 0x4 DUP1 CALLDATASIZE SUB DUP2 ADD SWAP1 PUSH2 0x188 SWAP2 SWAP1 PUSH2 0x19FD JUMP JUMPDEST PUSH2 0x1062 JUMP JUMPDEST STOP JUMPDEST PUSH1 0x60 PUSH1 0x0 DUP1 SLOAD PUSH8 0xFFFFFFFFFFFFFFFF DUP2 GT ISZERO PUSH2 0x1AE JUMPI PUSH2 0x1AD PUSH2 0x1530 JUMP JUMPDEST JUMPDEST PUSH1 0x40 MLOAD SWAP1 DUP1 DUP3 MSTORE DUP1 PUSH1 0x20 MUL PUSH1 0x20 ADD DUP3 ADD PUSH1 0x40 MSTORE DUP1 ISZERO PUSH2 0x1E7 JUMPI DUP2 PUSH1 0x20 ADD JUMPDEST PUSH2 0x1D4 PUSH2 0x11C8 JUMP JUMPDEST DUP2 MSTORE PUSH1 0x20 ADD SWAP1 PUSH1 0x1 SWAP1 SUB SWAP1 DUP2 PUSH2 0x1CC JUMPI SWAP1 POP JUMPDEST POP SWAP1 POP PUSH1 0x0 PUSH1 0x1 SWAP1 POP JUMPDEST PUSH1 0x0 SLOAD DUP2 GT PUSH2 0x611 JUMPI PUSH1 0x1 PUSH1 0x0 DUP3 DUP2 MSTORE PUSH1 0x20 ADD SWAP1 DUP2 MSTORE PUSH1 0x20 ADD PUSH1 0x0 KECCAK256 PUSH1 0x40 MLOAD DUP1 PUSH2 0x120 ADD PUSH1 0x40 MSTORE SWAP1 DUP2 PUSH1 0x0 DUP3 ADD SLOAD DUP2 MSTORE PUSH1 0x20 ADD PUSH1 0x1 DUP3 ADD DUP1 SLOAD PUSH2 0x233 SWAP1 PUSH2 0x1A6C JUMP JUMPDEST DUP1 PUSH1 0x1F ADD PUSH1 0x20 DUP1 SWAP2 DIV MUL PUSH1 0x20 ADD PUSH1 0x40 MLOAD SWAP1 DUP2 ADD PUSH1 0x40 MSTORE DUP1 SWAP3 SWAP2 SWAP1 DUP2 DUP2 MSTORE PUSH1 0x20 ADD DUP3 DUP1 SLOAD PUSH2 0x25F SWAP1 PUSH2 0x1A6C JUMP JUMPDEST DUP1 ISZERO PUSH2 0x2AC JUMPI DUP1 PUSH1 0x1F LT PUSH2 0x281 JUMPI PUSH2 0x100 DUP1 DUP4 SLOAD DIV MUL DUP4 MSTORE SWAP2 PUSH1 0x20 ADD SWAP2 PUSH2 0x2AC JUMP JUMPDEST DUP3 ADD SWAP2 SWAP1 PUSH1 0x0 MSTORE PUSH1 0x20 PUSH1 0x0 KECCAK256 SWAP1 JUMPDEST DUP2 SLOAD DUP2 MSTORE SWAP1 PUSH1 0x1 ADD SWAP1 PUSH1 0x20 ADD DUP1 DUP4 GT PUSH2 0x28F JUMPI DUP3 SWAP1 SUB PUSH1 0x1F AND DUP3 ADD SWAP2 JUMPDEST POP POP POP POP POP DUP2 MSTORE PUSH1 0x20 ADD PUSH1 0x2 DUP3 ADD DUP1 SLOAD PUSH2 0x2C5 SWAP1 PUSH2 0x1A6C JUMP JUMPDEST DUP1 PUSH1 0x1F ADD PUSH1 0x20 DUP1 SWAP2 DIV MUL PUSH1 0x20 ADD PUSH1 0x40 MLOAD SWAP1 DUP2 ADD PUSH1 0x40 MSTORE DUP1 SWAP3 SWAP2 SWAP1 DUP2 DUP2 MSTORE PUSH1 0x20 ADD DUP3 DUP1 SLOAD PUSH2 0x2F1 SWAP1 PUSH2 0x1A6C JUMP JUMPDEST DUP1 ISZERO PUSH2 0x33E JUMPI DUP1 PUSH1 0x1F LT PUSH2 0x313 JUMPI PUSH2 0x100 DUP1 DUP4 SLOAD DIV MUL DUP4 MSTORE SWAP2 PUSH1 0x20 ADD SWAP2 PUSH2 0x33E JUMP JUMPDEST DUP3 ADD SWAP2 SWAP1 PUSH1 0x0 MSTORE PUSH1 0x20 PUSH1 0x0 KECCAK256 SWAP1 JUMPDEST DUP2 SLOAD DUP2 MSTORE SWAP1 PUSH1 0x1 ADD SWAP1 PUSH1 0x20 ADD DUP1 DUP4 GT PUSH2 0x321 JUMPI DUP3 SWAP1 SUB PUSH1 0x1F AND DUP3 ADD SWAP2 JUMPDEST POP POP POP POP POP DUP2 MSTORE PUSH1 0x20 ADD PUSH1 0x3 DUP3 ADD PUSH1 0x0 SWAP1 SLOAD SWAP1 PUSH2 0x100 EXP SWAP1 DIV PUSH1 0xFF AND PUSH1 0x5 DUP2 GT ISZERO PUSH2 0x36C JUMPI PUSH2 0x36B PUSH2 0x12FB JUMP JUMPDEST JUMPDEST PUSH1 0x5 DUP2 GT ISZERO PUSH2 0x37E JUMPI PUSH2 0x37D PUSH2 0x12FB JUMP JUMPDEST JUMPDEST DUP2 MSTORE PUSH1 0x20 ADD PUSH1 0x4 DUP3 ADD DUP1 SLOAD PUSH2 0x392 SWAP1 PUSH2 0x1A6C JUMP JUMPDEST DUP1 PUSH1 0x1F ADD PUSH1 0x20 DUP1 SWAP2 DIV MUL PUSH1 0x20 ADD PUSH1 0x40 MLOAD SWAP1 DUP2 ADD PUSH1 0x40 MSTORE DUP1 SWAP3 SWAP2 SWAP1 DUP2 DUP2 MSTORE PUSH1 0x20 ADD DUP3 DUP1 SLOAD PUSH2 0x3BE SWAP1 PUSH2 0x1A6C JUMP JUMPDEST DUP1 ISZERO PUSH2 0x40B JUMPI DUP1 PUSH1 0x1F LT PUSH2 0x3E0 JUMPI PUSH2 0x100 DUP1 DUP4 SLOAD DIV MUL DUP4 MSTORE SWAP2 PUSH1 0x20 ADD SWAP2 PUSH2 0x40B JUMP JUMPDEST DUP3 ADD SWAP2 SWAP1 PUSH1 0x0 MSTORE PUSH1 0x20 PUSH1 0x0 KECCAK256 SWAP1 JUMPDEST DUP2 SLOAD DUP2 MSTORE SWAP1 PUSH1 0x1 ADD SWAP1 PUSH1 0x20 ADD DUP1 DUP4 GT PUSH2 0x3EE JUMPI DUP3 SWAP1 SUB PUSH1 0x1F AND DUP3 ADD SWAP2 JUMPDEST POP POP POP POP POP DUP2 MSTORE PUSH1 0x20 ADD PUSH1 0x5 DUP3 ADD DUP1 SLOAD PUSH2 0x424 SWAP1 PUSH2 0x1A6C JUMP JUMPDEST DUP1 PUSH1 0x1F ADD PUSH1 0x20 DUP1 SWAP2 DIV MUL PUSH1 0x20 ADD PUSH1 0x40 MLOAD SWAP1 DUP2 ADD PUSH1 0x40 MSTORE DUP1 SWAP3 SWAP2 SWAP1 DUP2 DUP2 MSTORE PUSH1 0x20 ADD DUP3 DUP1 SLOAD PUSH2 0x450 SWAP1 PUSH2 0x1A6C JUMP JUMPDEST DUP1 ISZERO PUSH2 0x49D JUMPI DUP1 PUSH1 0x1F LT PUSH2 0x472 JUMPI PUSH2 0x100 DUP1 DUP4 SLOAD DIV MUL DUP4 MSTORE SWAP2 PUSH1 0x20 ADD SWAP2 PUSH2 0x49D JUMP JUMPDEST DUP3 ADD SWAP2 SWAP1 PUSH1 0x0 MSTORE PUSH1 0x20 PUSH1 0x0 KECCAK256 SWAP1 JUMPDEST DUP2 SLOAD DUP2 MSTORE SWAP1 PUSH1 0x1 ADD SWAP1 PUSH1 0x20 ADD DUP1 DUP4 GT PUSH2 0x480 JUMPI DUP3 SWAP1 SUB PUSH1 0x1F AND DUP3 ADD SWAP2 JUMPDEST POP POP POP POP POP DUP2 MSTORE PUSH1 0x20 ADD PUSH1 0x6 DUP3 ADD SLOAD DUP2 MSTORE PUSH1 0x20 ADD PUSH1 0x7 DUP3 ADD DUP1 SLOAD PUSH2 0x4C0 SWAP1 PUSH2 0x1A6C JUMP JUMPDEST DUP1 PUSH1 0x1F ADD PUSH1 0x20 DUP1 SWAP2 DIV MUL PUSH1 0x20 ADD PUSH1 0x40 MLOAD SWAP1 DUP2 ADD PUSH1 0x40 MSTORE DUP1 SWAP3 SWAP2 SWAP1 DUP2 DUP2 MSTORE PUSH1 0x20 ADD DUP3 DUP1 SLOAD PUSH2 0x4EC SWAP1 PUSH2 0x1A6C JUMP JUMPDEST DUP1 ISZERO PUSH2 0x539 JUMPI DUP1 PUSH1 0x1F LT PUSH2 0x50E JUMPI PUSH2 0x100 DUP1 DUP4 SLOAD DIV MUL DUP4 MSTORE SWAP2 PUSH1 0x20 ADD SWAP2 PUSH2 0x539 JUMP JUMPDEST DUP3 ADD SWAP2 SWAP1 PUSH1 0x0 MSTORE PUSH1 0x20 PUSH1 0x0 KECCAK256 SWAP1 JUMPDEST DUP2 SLOAD DUP2 MSTORE SWAP1 PUSH1 0x1 ADD SWAP1 PUSH1 0x20 ADD DUP1 DUP4 GT PUSH2 0x51C JUMPI DUP3 SWAP1 SUB PUSH1 0x1F AND DUP3 ADD SWAP2 JUMPDEST POP POP POP POP POP DUP2 MSTORE PUSH1 0x20 ADD PUSH1 0x8 DUP3 ADD DUP1 SLOAD PUSH2 0x552 SWAP1 PUSH2 0x1A6C JUMP JUMPDEST DUP1 PUSH1 0x1F ADD PUSH1 0x20 DUP1 SWAP2 DIV MUL PUSH1 0x20 ADD PUSH1 0x40 MLOAD SWAP1 DUP2 ADD PUSH1 0x40 MSTORE DUP1 SWAP3 SWAP2 SWAP1 DUP2 DUP2 MSTORE PUSH1 0x20 ADD DUP3 DUP1 SLOAD PUSH2 0x57E SWAP1 PUSH2 0x1A6C JUMP JUMPDEST DUP1 ISZERO PUSH2 0x5CB JUMPI DUP1 PUSH1 0x1F LT PUSH2 0x5A0 JUMPI PUSH2 0x100 DUP1 DUP4 SLOAD DIV MUL DUP4 MSTORE SWAP2 PUSH1 0x20 ADD SWAP2 PUSH2 0x5CB JUMP JUMPDEST DUP3 ADD SWAP2 SWAP1 PUSH1 0x0 MSTORE PUSH1 0x20 PUSH1 0x0 KECCAK256 SWAP1 JUMPDEST DUP2 SLOAD DUP2 MSTORE SWAP1 PUSH1 0x1 ADD SWAP1 PUSH1 0x20 ADD DUP1 DUP4 GT PUSH2 0x5AE JUMPI DUP3 SWAP1 SUB PUSH1 0x1F AND DUP3 ADD SWAP2 JUMPDEST POP POP POP POP POP DUP2 MSTORE POP POP DUP3 PUSH1 0x1 DUP4 PUSH2 0x5E2 SWAP2 SWAP1 PUSH2 0x1ACC JUMP JUMPDEST DUP2 MLOAD DUP2 LT PUSH2 0x5F3 JUMPI PUSH2 0x5F2 PUSH2 0x1B00 JUMP JUMPDEST JUMPDEST PUSH1 0x20 MUL PUSH1 0x20 ADD ADD DUP2 SWAP1 MSTORE POP DUP1 DUP1 PUSH2 0x609 SWAP1 PUSH2 0x1B2F JUMP JUMPDEST SWAP2 POP POP PUSH2 0x1F1 JUMP JUMPDEST POP DUP1 SWAP2 POP POP SWAP1 JUMP JUMPDEST PUSH1 0x0 DUP4 MLOAD GT PUSH2 0x65D JUMPI PUSH1 0x40 MLOAD PUSH32 0x8C379A000000000000000000000000000000000000000000000000000000000 DUP2 MSTORE PUSH1 0x4 ADD PUSH2 0x654 SWAP1 PUSH2 0x1BC3 JUMP JUMPDEST PUSH1 0x40 MLOAD DUP1 SWAP2 SUB SWAP1 REVERT JUMPDEST PUSH1 0x0 DUP3 MLOAD GT PUSH2 0x6A1 JUMPI PUSH1 0x40 MLOAD PUSH32 0x8C379A000000000000000000000000000000000000000000000000000000000 DUP2 MSTORE PUSH1 0x4 ADD PUSH2 0x698 SWAP1 PUSH2 0x1C2F JUMP JUMPDEST PUSH1 0x40 MLOAD DUP1 SWAP2 SUB SWAP1 REVERT JUMPDEST PUSH1 0x0 DUP2 MLOAD GT PUSH2 0x6E5 JUMPI PUSH1 0x40 MLOAD PUSH32 0x8C379A000000000000000000000000000000000000000000000000000000000 DUP2 MSTORE PUSH1 0x4 ADD PUSH2 0x6DC SWAP1 PUSH2 0x1C9B JUMP JUMPDEST PUSH1 0x40 MLOAD DUP1 SWAP2 SUB SWAP1 REVERT JUMPDEST PUSH1 0x0 DUP1 DUP2 SLOAD DUP1 SWAP3 SWAP2 SWAP1 PUSH2 0x6F7 SWAP1 PUSH2 0x1B2F JUMP JUMPDEST SWAP2 SWAP1 POP SSTORE POP PUSH1 0x40 MLOAD DUP1 PUSH2 0x120 ADD PUSH1 0x40 MSTORE DUP1 PUSH1 0x0 SLOAD DUP2 MSTORE PUSH1 0x20 ADD DUP5 DUP2 MSTORE PUSH1 0x20 ADD DUP4 DUP2 MSTORE PUSH1 0x20 ADD PUSH1 0x3 PUSH1 0x5 DUP2 GT ISZERO PUSH2 0x730 JUMPI PUSH2 0x72F PUSH2 0x12FB JUMP JUMPDEST JUMPDEST DUP2 MSTORE PUSH1 0x20 ADD PUSH1 0x40 MLOAD DUP1 PUSH1 0x20 ADD PUSH1 0x40 MSTORE DUP1 PUSH1 0x0 DUP2 MSTORE POP DUP2 MSTORE PUSH1 0x20 ADD DUP3 DUP2 MSTORE PUSH1 0x20 ADD TIMESTAMP DUP2 MSTORE PUSH1 0x20 ADD PUSH1 0x40 MLOAD DUP1 PUSH1 0x20 ADD PUSH1 0x40 MSTORE DUP1 PUSH1 0x0 DUP2 MSTORE POP DUP2 MSTORE PUSH1 0x20 ADD PUSH1 0x40 MLOAD DUP1 PUSH1 0x20 ADD PUSH1 0x40 MSTORE DUP1 PUSH1 0x0 DUP2 MSTORE POP DUP2 MSTORE POP PUSH1 0x1 PUSH1 0x0 DUP1 SLOAD DUP2 MSTORE PUSH1 0x20 ADD SWAP1 DUP2 MSTORE PUSH1 0x20 ADD PUSH1 0x0 KECCAK256 PUSH1 0x0 DUP3 ADD MLOAD DUP2 PUSH1 0x0 ADD SSTORE PUSH1 0x20 DUP3 ADD MLOAD DUP2 PUSH1 0x1 ADD SWAP1 DUP2 PUSH2 0x7B1 SWAP2 SWAP1 PUSH2 0x1E67 JUMP JUMPDEST POP PUSH1 0x40 DUP3 ADD MLOAD DUP2 PUSH1 0x2 ADD SWAP1 DUP2 PUSH2 0x7C7 SWAP2 SWAP1 PUSH2 0x1E67 JUMP JUMPDEST POP PUSH1 0x60 DUP3 ADD MLOAD DUP2 PUSH1 0x3 ADD PUSH1 0x0 PUSH2 0x100 EXP DUP2 SLOAD DUP2 PUSH1 0xFF MUL NOT AND SWAP1 DUP4 PUSH1 0x5 DUP2 GT ISZERO PUSH2 0x7F3 JUMPI PUSH2 0x7F2 PUSH2 0x12FB JUMP JUMPDEST JUMPDEST MUL OR SWAP1 SSTORE POP PUSH1 0x80 DUP3 ADD MLOAD DUP2 PUSH1 0x4 ADD SWAP1 DUP2 PUSH2 0x80D SWAP2 SWAP1 PUSH2 0x1E67 JUMP JUMPDEST POP PUSH1 0xA0 DUP3 ADD MLOAD DUP2 PUSH1 0x5 ADD SWAP1 DUP2 PUSH2 0x823 SWAP2 SWAP1 PUSH2 0x1E67 JUMP JUMPDEST POP PUSH1 0xC0 DUP3 ADD MLOAD DUP2 PUSH1 0x6 ADD SSTORE PUSH1 0xE0 DUP3 ADD MLOAD DUP2 PUSH1 0x7 ADD SWAP1 DUP2 PUSH2 0x843 SWAP2 SWAP1 PUSH2 0x1E67 JUMP JUMPDEST POP PUSH2 0x100 DUP3 ADD MLOAD DUP2 PUSH1 0x8 ADD SWAP1 DUP2 PUSH2 0x85A SWAP2 SWAP1 PUSH2 0x1E67 JUMP JUMPDEST POP SWAP1 POP POP PUSH32 0xA9DF679AFBC4995AD59E91C34DE99AF97402ADD9195C8F5F82F0BE315FECC059 PUSH1 0x0 SLOAD DUP5 DUP5 DUP5 PUSH1 0x40 MLOAD PUSH2 0x895 SWAP5 SWAP4 SWAP3 SWAP2 SWAP1 PUSH2 0x1F39 JUMP JUMPDEST PUSH1 0x40 MLOAD DUP1 SWAP2 SUB SWAP1 LOG1 POP POP POP JUMP JUMPDEST PUSH1 0x0 DUP1 SLOAD SWAP1 POP SWAP1 JUMP JUMPDEST DUP3 PUSH1 0x0 PUSH1 0x1 PUSH1 0x0 DUP4 DUP2 MSTORE PUSH1 0x20 ADD SWAP1 DUP2 MSTORE PUSH1 0x20 ADD PUSH1 0x0 KECCAK256 PUSH1 0x6 ADD SLOAD SUB PUSH2 0x905 JUMPI PUSH1 0x40 MLOAD PUSH32 0x8C379A000000000000000000000000000000000000000000000000000000000 DUP2 MSTORE PUSH1 0x4 ADD PUSH2 0x8FC SWAP1 PUSH2 0x1FDF JUMP JUMPDEST PUSH1 0x40 MLOAD DUP1 SWAP2 SUB SWAP1 REVERT JUMPDEST PUSH1 0x0 DUP4 MLOAD GT PUSH2 0x949 JUMPI PUSH1 0x40 MLOAD PUSH32 0x8C379A000000000000000000000000000000000000000000000000000000000 DUP2 MSTORE PUSH1 0x4 ADD PUSH2 0x940 SWAP1 PUSH2 0x204B JUMP JUMPDEST PUSH1 0x40 MLOAD DUP1 SWAP2 SUB SWAP1 REVERT JUMPDEST PUSH1 0x0 DUP3 MLOAD GT PUSH2 0x98D JUMPI PUSH1 0x40 MLOAD PUSH32 0x8C379A000000000000000000000000000000000000000000000000000000000 DUP2 MSTORE PUSH1 0x4 ADD PUSH2 0x984 SWAP1 PUSH2 0x20B7 JUMP JUMPDEST PUSH1 0x40 MLOAD DUP1 SWAP2 SUB SWAP1 REVERT JUMPDEST DUP3 PUSH1 0x1 PUSH1 0x0 DUP7 DUP2 MSTORE PUSH1 0x20 ADD SWAP1 DUP2 MSTORE PUSH1 0x20 ADD PUSH1 0x0 KECCAK256 PUSH1 0x7 ADD SWAP1 DUP2 PUSH2 0x9B0 SWAP2 SWAP1 PUSH2 0x1E67 JUMP JUMPDEST POP DUP2 PUSH1 0x1 PUSH1 0x0 DUP7 DUP2 MSTORE PUSH1 0x20 ADD SWAP1 DUP2 MSTORE PUSH1 0x20 ADD PUSH1 0x0 KECCAK256 PUSH1 0x8 ADD SWAP1 DUP2 PUSH2 0x9D4 SWAP2 SWAP1 PUSH2 0x1E67 JUMP JUMPDEST POP PUSH32 0xA2D9115CD41B6E1C8E233FC900665559CE7062B9F0B08141B53BB5861D16A329 DUP5 DUP5 DUP5 PUSH1 0x40 MLOAD PUSH2 0xA08 SWAP4 SWAP3 SWAP2 SWAP1 PUSH2 0x20D7 JUMP JUMPDEST PUSH1 0x40 MLOAD DUP1 SWAP2 SUB SWAP1 LOG1 POP POP POP POP JUMP JUMPDEST PUSH1 0x2 PUSH1 0x0 SWAP1 SLOAD SWAP1 PUSH2 0x100 EXP SWAP1 DIV PUSH20 0xFFFFFFFFFFFFFFFFFFFFFFFFFFFFFFFFFFFFFFFF AND DUP2 JUMP JUMPDEST PUSH1 0x0 PUSH1 0x60 DUP1 PUSH1 0x0 PUSH1 0x60 DUP1 PUSH1 0x0 PUSH1 0x60 DUP1 DUP10 PUSH1 0x0 PUSH1 0x1 PUSH1 0x0 DUP4 DUP2 MSTORE PUSH1 0x20 ADD SWAP1 DUP2 MSTORE PUSH1 0x20 ADD PUSH1 0x0 KECCAK256 PUSH1 0x6 ADD SLOAD SUB PUSH2 0xAA5 JUMPI PUSH1 0x40 MLOAD PUSH32 0x8C379A000000000000000000000000000000000000000000000000000000000 DUP2 MSTORE PUSH1 0x4 ADD PUSH2 0xA9C SWAP1 PUSH2 0x1FDF JUMP JUMPDEST PUSH1 0x40 MLOAD DUP1 SWAP2 SUB SWAP1 REVERT JUMPDEST PUSH1 0x0 PUSH1 0x1 PUSH1 0x0 DUP14 DUP2 MSTORE PUSH1 0x20 ADD SWAP1 DUP2 MSTORE PUSH1 0x20 ADD PUSH1 0x0 KECCAK256 PUSH1 0x40 MLOAD DUP1 PUSH2 0x120 ADD PUSH1 0x40 MSTORE SWAP1 DUP2 PUSH1 0x0 DUP3 ADD SLOAD DUP2 MSTORE PUSH1 0x20 ADD PUSH1 0x1 DUP3 ADD DUP1 SLOAD PUSH2 0xAE0 SWAP1 PUSH2 0x1A6C JUMP JUMPDEST DUP1 PUSH1 0x1F ADD PUSH1 0x20 DUP1 SWAP2 DIV MUL PUSH1 0x20 ADD PUSH1 0x40 MLOAD SWAP1 DUP2 ADD PUSH1 0x40 MSTORE DUP1 SWAP3 SWAP2 SWAP1 DUP2 DUP2 MSTORE PUSH1 0x20 ADD DUP3 DUP1 SLOAD PUSH2 0xB0C SWAP1 PUSH2 0x1A6C JUMP JUMPDEST DUP1 ISZERO PUSH2 0xB59 JUMPI DUP1 PUSH1 0x1F LT PUSH2 0xB2E JUMPI PUSH2 0x100 DUP1 DUP4 SLOAD DIV MUL DUP4 MSTORE SWAP2 PUSH1 0x20 ADD SWAP2 PUSH2 0xB59 JUMP JUMPDEST DUP3 ADD SWAP2 SWAP1 PUSH1 0x0 MSTORE PUSH1 0x20 PUSH1 0x0 KECCAK256 SWAP1 JUMPDEST DUP2 SLOAD DUP2 MSTORE SWAP1 PUSH1 0x1 ADD SWAP1 PUSH1 0x20 ADD DUP1 DUP4 GT PUSH2 0xB3C JUMPI DUP3 SWAP1 SUB PUSH1 0x1F AND DUP3 ADD SWAP2 JUMPDEST POP POP POP POP POP DUP2 MSTORE PUSH1 0x20 ADD PUSH1 0x2 DUP3 ADD DUP1 SLOAD PUSH2 0xB72 SWAP1 PUSH2 0x1A6C JUMP JUMPDEST DUP1 PUSH1 0x1F ADD PUSH1 0x20 DUP1 SWAP2 DIV MUL PUSH1 0x20 ADD PUSH1 0x40 MLOAD SWAP1 DUP2 ADD PUSH1 0x40 MSTORE DUP1 SWAP3 SWAP2 SWAP1 DUP2 DUP2 MSTORE PUSH1 0x20 ADD DUP3 DUP1 SLOAD PUSH2 0xB9E SWAP1 PUSH2 0x1A6C JUMP JUMPDEST DUP1 ISZERO PUSH2 0xBEB JUMPI DUP1 PUSH1 0x1F LT PUSH2 0xBC0 JUMPI PUSH2 0x100 DUP1 DUP4 SLOAD DIV MUL DUP4 MSTORE SWAP2 PUSH1 0x20 ADD SWAP2 PUSH2 0xBEB JUMP JUMPDEST DUP3 ADD SWAP2 SWAP1 PUSH1 0x0 MSTORE PUSH1 0x20 PUSH1 0x0 KECCAK256 SWAP1 JUMPDEST DUP2 SLOAD DUP2 MSTORE SWAP1 PUSH1 0x1 ADD SWAP1 PUSH1 0x20 ADD DUP1 DUP4 GT PUSH2 0xBCE JUMPI DUP3 SWAP1 SUB PUSH1 0x1F AND DUP3 ADD SWAP2 JUMPDEST POP POP POP POP POP DUP2 MSTORE PUSH1 0x20 ADD PUSH1 0x3 DUP3 ADD PUSH1 0x0 SWAP1 SLOAD SWAP1 PUSH2 0x100 EXP SWAP1 DIV PUSH1 0xFF AND PUSH1 0x5 DUP2 GT ISZERO PUSH2 0xC19 JUMPI PUSH2 0xC18 PUSH2 0x12FB JUMP JUMPDEST JUMPDEST PUSH1 0x5 DUP2 GT ISZERO PUSH2 0xC2B JUMPI PUSH2 0xC2A PUSH2 0x12FB JUMP JUMPDEST JUMPDEST DUP2 MSTORE PUSH1 0x20 ADD PUSH1 0x4 DUP3 ADD DUP1 SLOAD PUSH2 0xC3F SWAP1 PUSH2 0x1A6C JUMP JUMPDEST DUP1 PUSH1 0x1F ADD PUSH1 0x20 DUP1 SWAP2 DIV MUL PUSH1 0x20 ADD PUSH1 0x40 MLOAD SWAP1 DUP2 ADD PUSH1 0x40 MSTORE DUP1 SWAP3 SWAP2 SWAP1 DUP2 DUP2 MSTORE PUSH1 0x20 ADD DUP3 DUP1 SLOAD PUSH2 0xC6B SWAP1 PUSH2 0x1A6C JUMP JUMPDEST DUP1 ISZERO PUSH2 0xCB8 JUMPI DUP1 PUSH1 0x1F LT PUSH2 0xC8D JUMPI PUSH2 0x100 DUP1 DUP4 SLOAD DIV MUL DUP4 MSTORE SWAP2 PUSH1 0x20 ADD SWAP2 PUSH2 0xCB8 JUMP JUMPDEST DUP3 ADD SWAP2 SWAP1 PUSH1 0x0 MSTORE PUSH1 0x20 PUSH1 0x0 KECCAK256 SWAP1 JUMPDEST DUP2 SLOAD DUP2 MSTORE SWAP1 PUSH1 0x1 ADD SWAP1 PUSH1 0x20 ADD DUP1 DUP4 GT PUSH2 0xC9B JUMPI DUP3 SWAP1 SUB PUSH1 0x1F AND DUP3 ADD SWAP2 JUMPDEST POP POP POP POP POP DUP2 MSTORE PUSH1 0x20 ADD PUSH1 0x5 DUP3 ADD DUP1 SLOAD PUSH2 0xCD1 SWAP1 PUSH2 0x1A6C JUMP JUMPDEST DUP1 PUSH1 0x1F ADD PUSH1 0x20 DUP1 SWAP2 DIV MUL PUSH1 0x20 ADD PUSH1 0x40 MLOAD SWAP1 DUP2 ADD PUSH1 0x40 MSTORE DUP1 SWAP3 SWAP2 SWAP1 DUP2 DUP2 MSTORE PUSH1 0x20 ADD DUP3 DUP1 SLOAD PUSH2 0xCFD SWAP1 PUSH2 0x1A6C JUMP JUMPDEST DUP1 ISZERO PUSH2 0xD4A JUMPI DUP1 PUSH1 0x1F LT PUSH2 0xD1F JUMPI PUSH2 0x100 DUP1 DUP4 SLOAD DIV MUL DUP4 MSTORE SWAP2 PUSH1 0x20 ADD SWAP2 PUSH2 0xD4A JUMP JUMPDEST DUP3 ADD SWAP2 SWAP1 PUSH1 0x0 MSTORE PUSH1 0x20 PUSH1 0x0 KECCAK256 SWAP1 JUMPDEST DUP2 SLOAD DUP2 MSTORE SWAP1 PUSH1 0x1 ADD SWAP1 PUSH1 0x20 ADD DUP1 DUP4 GT PUSH2 0xD2D JUMPI DUP3 SWAP1 SUB PUSH1 0x1F AND DUP3 ADD SWAP2 JUMPDEST POP POP POP POP POP DUP2 MSTORE PUSH1 0x20 ADD PUSH1 0x6 DUP3 ADD SLOAD DUP2 MSTORE PUSH1 0x20 ADD PUSH1 0x7 DUP3 ADD DUP1 SLOAD PUSH2 0xD6D SWAP1 PUSH2 0x1A6C JUMP JUMPDEST DUP1 PUSH1 0x1F ADD PUSH1 0x20 DUP1 SWAP2 DIV MUL PUSH1 0x20 ADD PUSH1 0x40 MLOAD SWAP1 DUP2 ADD PUSH1 0x40 MSTORE DUP1 SWAP3 SWAP2 SWAP1 DUP2 DUP2 MSTORE PUSH1 0x20 ADD DUP3 DUP1 SLOAD PUSH2 0xD99 SWAP1 PUSH2 0x1A6C JUMP JUMPDEST DUP1 ISZERO PUSH2 0xDE6 JUMPI DUP1 PUSH1 0x1F LT PUSH2 0xDBB JUMPI PUSH2 0x100 DUP1 DUP4 SLOAD DIV MUL DUP4 MSTORE SWAP2 PUSH1 0x20 ADD SWAP2 PUSH2 0xDE6 JUMP JUMPDEST DUP3 ADD SWAP2 SWAP1 PUSH1 0x0 MSTORE PUSH1 0x20 PUSH1 0x0 KECCAK256 SWAP1 JUMPDEST DUP2 SLOAD DUP2 MSTORE SWAP1 PUSH1 0x1 ADD SWAP1 PUSH1 0x20 ADD DUP1 DUP4 GT PUSH2 0xDC9 JUMPI DUP3 SWAP1 SUB PUSH1 0x1F AND DUP3 ADD SWAP2 JUMPDEST POP POP POP POP POP DUP2 MSTORE PUSH1 0x20 ADD PUSH1 0x8 DUP3 ADD DUP1 SLOAD PUSH2 0xDFF SWAP1 PUSH2 0x1A6C JUMP JUMPDEST DUP1 PUSH1 0x1F ADD PUSH1 0x20 DUP1 SWAP2 DIV MUL PUSH1 0x20 ADD PUSH1 0x40 MLOAD SWAP1 DUP2 ADD PUSH1 0x40 MSTORE DUP1 SWAP3 SWAP2 SWAP1 DUP2 DUP2 MSTORE PUSH1 0x20 ADD DUP3 DUP1 SLOAD PUSH2 0xE2B SWAP1 PUSH2 0x1A6C JUMP JUMPDEST DUP1 ISZERO PUSH2 0xE78 JUMPI DUP1 PUSH1 0x1F LT PUSH2 0xE4D JUMPI PUSH2 0x100 DUP1 DUP4 SLOAD DIV MUL DUP4 MSTORE SWAP2 PUSH1 0x20 ADD SWAP2 PUSH2 0xE78 JUMP JUMPDEST DUP3 ADD SWAP2 SWAP1 PUSH1 0x0 MSTORE PUSH1 0x20 PUSH1 0x0 KECCAK256 SWAP1 JUMPDEST DUP2 SLOAD DUP2 MSTORE SWAP1 PUSH1 0x1 ADD SWAP1 PUSH1 0x20 ADD DUP1 DUP4 GT PUSH2 0xE5B JUMPI DUP3 SWAP1 SUB PUSH1 0x1F AND DUP3 ADD SWAP2 JUMPDEST POP POP POP POP POP DUP2 MSTORE POP POP SWAP1 POP DUP1 PUSH1 0x0 ADD MLOAD DUP2 PUSH1 0x20 ADD MLOAD DUP3 PUSH1 0x40 ADD MLOAD DUP4 PUSH1 0x60 ADD MLOAD DUP5 PUSH1 0x80 ADD MLOAD DUP6 PUSH1 0xA0 ADD MLOAD DUP7 PUSH1 0xC0 ADD MLOAD DUP8 PUSH1 0xE0 ADD MLOAD DUP9 PUSH2 0x100 ADD MLOAD SWAP11 POP SWAP11 POP SWAP11 POP SWAP11 POP SWAP11 POP SWAP11 POP SWAP11 POP SWAP11 POP SWAP11 POP POP POP SWAP2 SWAP4 SWAP6 SWAP8 SWAP10 SWAP1 SWAP3 SWAP5 SWAP7 SWAP9 POP JUMP JUMPDEST PUSH1 0x2 PUSH1 0x0 SWAP1 SLOAD SWAP1 PUSH2 0x100 EXP SWAP1 DIV PUSH20 0xFFFFFFFFFFFFFFFFFFFFFFFFFFFFFFFFFFFFFFFF AND PUSH20 0xFFFFFFFFFFFFFFFFFFFFFFFFFFFFFFFFFFFFFFFF AND CALLER PUSH20 0xFFFFFFFFFFFFFFFFFFFFFFFFFFFFFFFFFFFFFFFF AND EQ PUSH2 0xF62 JUMPI PUSH1 0x40 MLOAD PUSH32 0x8C379A000000000000000000000000000000000000000000000000000000000 DUP2 MSTORE PUSH1 0x4 ADD PUSH2 0xF59 SWAP1 PUSH2 0x218E JUMP JUMPDEST PUSH1 0x40 MLOAD DUP1 SWAP2 SUB SWAP1 REVERT JUMPDEST DUP2 PUSH1 0x0 PUSH1 0x1 PUSH1 0x0 DUP4 DUP2 MSTORE PUSH1 0x20 ADD SWAP1 DUP2 MSTORE PUSH1 0x20 ADD PUSH1 0x0 KECCAK256 PUSH1 0x6 ADD SLOAD SUB PUSH2 0xFBC JUMPI PUSH1 0x40 MLOAD PUSH32 0x8C379A000000000000000000000000000000000000000000000000000000000 DUP2 MSTORE PUSH1 0x4 ADD PUSH2 0xFB3 SWAP1 PUSH2 0x1FDF JUMP JUMPDEST PUSH1 0x40 MLOAD DUP1 SWAP2 SUB SWAP1 REVERT JUMPDEST PUSH1 0x0 DUP3 MLOAD GT PUSH2 0x1000 JUMPI PUSH1 0x40 MLOAD PUSH32 0x8C379A000000000000000000000000000000000000000000000000000000000 DUP2 MSTORE PUSH1 0x4 ADD PUSH2 0xFF7 SWAP1 PUSH2 0x21FA JUMP JUMPDEST PUSH1 0x40 MLOAD DUP1 SWAP2 SUB SWAP1 REVERT JUMPDEST DUP2 PUSH1 0x1 PUSH1 0x0 DUP6 DUP2 MSTORE PUSH1 0x20 ADD SWAP1 DUP2 MSTORE PUSH1 0x20 ADD PUSH1 0x0 KECCAK256 PUSH1 0x4 ADD SWAP1 DUP2 PUSH2 0x1023 SWAP2 SWAP1 PUSH2 0x1E67 JUMP JUMPDEST POP PUSH32 0x2C850769BA2794D7B52EA8E547F2D7536A1F39633AD0267673C709807EE98B05 DUP4 DUP4 PUSH1 0x40 MLOAD PUSH2 0x1055 SWAP3 SWAP2 SWAP1 PUSH2 0x221A JUMP JUMPDEST PUSH1 0x40 MLOAD DUP1 SWAP2 SUB SWAP1 LOG1 POP POP POP JUMP JUMPDEST PUSH1 0x2 PUSH1 0x0 SWAP1 SLOAD SWAP1 PUSH2 0x100 EXP SWAP1 DIV PUSH20 0xFFFFFFFFFFFFFFFFFFFFFFFFFFFFFFFFFFFFFFFF AND PUSH20 0xFFFFFFFFFFFFFFFFFFFFFFFFFFFFFFFFFFFFFFFF AND CALLER PUSH20 0xFFFFFFFFFFFFFFFFFFFFFFFFFFFFFFFFFFFFFFFF AND EQ PUSH2 0x10F2 JUMPI PUSH1 0x40 MLOAD PUSH32 0x8C379A000000000000000000000000000000000000000000000000000000000 DUP2 MSTORE PUSH1 0x4 ADD PUSH2 0x10E9 SWAP1 PUSH2 0x218E JUMP JUMPDEST PUSH1 0x40 MLOAD DUP1 SWAP2 SUB SWAP1 REVERT JUMPDEST DUP2 PUSH1 0x0 PUSH1 0x1 PUSH1 0x0 DUP4 DUP2 MSTORE PUSH1 0x20 ADD SWAP1 DUP2 MSTORE PUSH1 0x20 ADD PUSH1 0x0 KECCAK256 PUSH1 0x6 ADD SLOAD SUB PUSH2 0x114C JUMPI PUSH1 0x40 MLOAD PUSH32 0x8C379A000000000000000000000000000000000000000000000000000000000 DUP2 MSTORE PUSH1 0x4 ADD PUSH2 0x1143 SWAP1 PUSH2 0x1FDF JUMP JUMPDEST PUSH1 0x40 MLOAD DUP1 SWAP2 SUB SWAP1 REVERT JUMPDEST DUP2 PUSH1 0x1 PUSH1 0x0 DUP6 DUP2 MSTORE PUSH1 0x20 ADD SWAP1 DUP2 MSTORE PUSH1 0x20 ADD PUSH1 0x0 KECCAK256 PUSH1 0x3 ADD PUSH1 0x0 PUSH2 0x100 EXP DUP2 SLOAD DUP2 PUSH1 0xFF MUL NOT AND SWAP1 DUP4 PUSH1 0x5 DUP2 GT ISZERO PUSH2 0x1185 JUMPI PUSH2 0x1184 PUSH2 0x12FB JUMP JUMPDEST JUMPDEST MUL OR SWAP1 SSTORE POP PUSH32 0xC2DAA0532D44D67167061530BE45CF08AA66DCEC7AEA6AEB2888FED682E5F12B DUP4 DUP4 PUSH1 0x40 MLOAD PUSH2 0x11BB SWAP3 SWAP2 SWAP1 PUSH2 0x224A JUMP JUMPDEST PUSH1 0x40 MLOAD DUP1 SWAP2 SUB SWAP1 LOG1 POP POP POP JUMP JUMPDEST PUSH1 0x40 MLOAD DUP1 PUSH2 0x120 ADD PUSH1 0x40 MSTORE DUP1 PUSH1 0x0 DUP2 MSTORE PUSH1 0x20 ADD PUSH1 0x60 DUP2 MSTORE PUSH1 0x20 ADD PUSH1 0x60 DUP2 MSTORE PUSH1 0x20 ADD PUSH1 0x0 PUSH1 0x5 DUP2 GT ISZERO PUSH2 0x11FD JUMPI PUSH2 0x11FC PUSH2 0x12FB JUMP JUMPDEST JUMPDEST DUP2 MSTORE PUSH1 0x20 ADD PUSH1 0x60 DUP2 MSTORE PUSH1 0x20 ADD PUSH1 0x60 DUP2 MSTORE PUSH1 0x20 ADD PUSH1 0x0 DUP2 MSTORE PUSH1 0x20 ADD PUSH1 0x60 DUP2 MSTORE PUSH1 0x20 ADD PUSH1 0x60 DUP2 MSTORE POP SWAP1 JUMP JUMPDEST PUSH1 0x0 DUP2 MLOAD SWAP1 POP SWAP2 SWAP1 POP JUMP JUMPDEST PUSH1 0x0 DUP3 DUP3 MSTORE PUSH1 0x20 DUP3 ADD SWAP1 POP SWAP3 SWAP2 POP POP JUMP JUMPDEST PUSH1 0x0 DUP2 SWAP1 POP PUSH1 0x20 DUP3 ADD SWAP1 POP SWAP2 SWAP1 POP JUMP JUMPDEST PUSH1 0x0 DUP2 SWAP1 POP SWAP2 SWAP1 POP JUMP JUMPDEST PUSH2 0x1265 DUP2 PUSH2 0x1252 JUMP JUMPDEST DUP3 MSTORE POP POP JUMP JUMPDEST PUSH1 0x0 DUP2 MLOAD SWAP1 POP SWAP2 SWAP1 POP JUMP JUMPDEST PUSH1 0x0 DUP3 DUP3 MSTORE PUSH1 0x20 DUP3 ADD SWAP1 POP SWAP3 SWAP2 POP POP JUMP JUMPDEST PUSH1 0x0 JUMPDEST DUP4 DUP2 LT ISZERO PUSH2 0x12A5 JUMPI DUP1 DUP3 ADD MLOAD DUP2 DUP5 ADD MSTORE PUSH1 0x20 DUP2 ADD SWAP1 POP PUSH2 0x128A JUMP JUMPDEST PUSH1 0x0 DUP5 DUP5 ADD MSTORE POP POP POP POP JUMP JUMPDEST PUSH1 0x0 PUSH1 0x1F NOT PUSH1 0x1F DUP4 ADD AND SWAP1 POP SWAP2 SWAP1 POP JUMP JUMPDEST PUSH1 0x0 PUSH2 0x12CD DUP3 PUSH2 0x126B JUMP JUMPDEST PUSH2 0x12D7 DUP2 DUP6 PUSH2 0x1276 JUMP JUMPDEST SWAP4 POP PUSH2 0x12E7 DUP2 DUP6 PUSH1 0x20 DUP7 ADD PUSH2 0x1287 JUMP JUMPDEST PUSH2 0x12F0 DUP2 PUSH2 0x12B1 JUMP JUMPDEST DUP5 ADD SWAP2 POP POP SWAP3 SWAP2 POP POP JUMP JUMPDEST PUSH32 0x4E487B7100000000000000000000000000000000000000000000000000000000 PUSH1 0x0 MSTORE PUSH1 0x21 PUSH1 0x4 MSTORE PUSH1 0x24 PUSH1 0x0 REVERT JUMPDEST PUSH1 0x6 DUP2 LT PUSH2 0x133B JUMPI PUSH2 0x133A PUSH2 0x12FB JUMP JUMPDEST JUMPDEST POP JUMP JUMPDEST PUSH1 0x0 DUP2 SWAP1 POP PUSH2 0x134C DUP3 PUSH2 0x132A JUMP JUMPDEST SWAP2 SWAP1 POP JUMP JUMPDEST PUSH1 0x0 PUSH2 0x135C DUP3 PUSH2 0x133E JUMP JUMPDEST SWAP1 POP SWAP2 SWAP1 POP JUMP JUMPDEST PUSH2 0x136C DUP2 PUSH2 0x1351 JUMP JUMPDEST DUP3 MSTORE POP POP JUMP JUMPDEST PUSH1 0x0 PUSH2 0x120 DUP4 ADD PUSH1 0x0 DUP4 ADD MLOAD PUSH2 0x138B PUSH1 0x0 DUP7 ADD DUP3 PUSH2 0x125C JUMP JUMPDEST POP PUSH1 0x20 DUP4 ADD MLOAD DUP5 DUP3 SUB PUSH1 0x20 DUP7 ADD MSTORE PUSH2 0x13A3 DUP3 DUP3 PUSH2 0x12C2 JUMP JUMPDEST SWAP2 POP POP PUSH1 0x40 DUP4 ADD MLOAD DUP5 DUP3 SUB PUSH1 0x40 DUP7 ADD MSTORE PUSH2 0x13BD DUP3 DUP3 PUSH2 0x12C2 JUMP JUMPDEST SWAP2 POP POP PUSH1 0x60 DUP4 ADD MLOAD PUSH2 0x13D2 PUSH1 0x60 DUP7 ADD DUP3 PUSH2 0x1363 JUMP JUMPDEST POP PUSH1 0x80 DUP4 ADD MLOAD DUP5 DUP3 SUB PUSH1 0x80 DUP7 ADD MSTORE PUSH2 0x13EA DUP3 DUP3 PUSH2 0x12C2 JUMP JUMPDEST SWAP2 POP POP PUSH1 0xA0 DUP4 ADD MLOAD DUP5 DUP3 SUB PUSH1 0xA0 DUP7 ADD MSTORE PUSH2 0x1404 DUP3 DUP3 PUSH2 0x12C2 JUMP JUMPDEST SWAP2 POP POP PUSH1 0xC0 DUP4 ADD MLOAD PUSH2 0x1419 PUSH1 0xC0 DUP7 ADD DUP3 PUSH2 0x125C JUMP JUMPDEST POP PUSH1 0xE0 DUP4 ADD MLOAD DUP5 DUP3 SUB PUSH1 0xE0 DUP7 ADD MSTORE PUSH2 0x1431 DUP3 DUP3 PUSH2 0x12C2 JUMP JUMPDEST SWAP2 POP POP PUSH2 0x100 DUP4 ADD MLOAD DUP5 DUP3 SUB PUSH2 0x100 DUP7 ADD MSTORE PUSH2 0x144D DUP3 DUP3 PUSH2 0x12C2 JUMP JUMPDEST SWAP2 POP POP DUP1 SWAP2 POP POP SWAP3 SWAP2 POP POP JUMP JUMPDEST PUSH1 0x0 PUSH2 0x1466 DUP4 DUP4 PUSH2 0x1372 JUMP JUMPDEST SWAP1 POP SWAP3 SWAP2 POP POP JUMP JUMPDEST PUSH1 0x0 PUSH1 0x20 DUP3 ADD SWAP1 POP SWAP2 SWAP1 POP JUMP JUMPDEST PUSH1 0x0 PUSH2 0x1486 DUP3 PUSH2 0x1226 JUMP JUMPDEST PUSH2 0x1490 DUP2 DUP6 PUSH2 0x1231 JUMP JUMPDEST SWAP4 POP DUP4 PUSH1 0x20 DUP3 MUL DUP6 ADD PUSH2 0x14A2 DUP6 PUSH2 0x1242 JUMP JUMPDEST DUP1 PUSH1 0x0 JUMPDEST DUP6 DUP2 LT ISZERO PUSH2 0x14DE JUMPI DUP5 DUP5 SUB DUP10 MSTORE DUP2 MLOAD PUSH2 0x14BF DUP6 DUP3 PUSH2 0x145A JUMP JUMPDEST SWAP5 POP PUSH2 0x14CA DUP4 PUSH2 0x146E JUMP JUMPDEST SWAP3 POP PUSH1 0x20 DUP11 ADD SWAP10 POP POP PUSH1 0x1 DUP2 ADD SWAP1 POP PUSH2 0x14A6 JUMP JUMPDEST POP DUP3 SWAP8 POP DUP8 SWAP6 POP POP POP POP POP POP SWAP3 SWAP2 POP POP JUMP JUMPDEST PUSH1 0x0 PUSH1 0x20 DUP3 ADD SWAP1 POP DUP2 DUP2 SUB PUSH1 0x0 DUP4 ADD MSTORE PUSH2 0x150A DUP2 DUP5 PUSH2 0x147B JUMP JUMPDEST SWAP1 POP SWAP3 SWAP2 POP POP JUMP JUMPDEST PUSH1 0x0 PUSH1 0x40 MLOAD SWAP1 POP SWAP1 JUMP JUMPDEST PUSH1 0x0 DUP1 REVERT JUMPDEST PUSH1 0x0 DUP1 REVERT JUMPDEST PUSH1 0x0 DUP1 REVERT JUMPDEST PUSH1 0x0 DUP1 REVERT JUMPDEST PUSH32 0x4E487B7100000000000000000000000000000000000000000000000000000000 PUSH1 0x0 MSTORE PUSH1 0x41 PUSH1 0x4 MSTORE PUSH1 0x24 PUSH1 0x0 REVERT JUMPDEST PUSH2 0x1568 DUP3 PUSH2 0x12B1 JUMP JUMPDEST DUP2 ADD DUP2 DUP2 LT PUSH8 0xFFFFFFFFFFFFFFFF DUP3 GT OR ISZERO PUSH2 0x1587 JUMPI PUSH2 0x1586 PUSH2 0x1530 JUMP JUMPDEST JUMPDEST DUP1 PUSH1 0x40 MSTORE POP POP POP JUMP JUMPDEST PUSH1 0x0 PUSH2 0x159A PUSH2 0x1512 JUMP JUMPDEST SWAP1 POP PUSH2 0x15A6 DUP3 DUP3 PUSH2 0x155F JUMP JUMPDEST SWAP2 SWAP1 POP JUMP JUMPDEST PUSH1 0x0 PUSH8 0xFFFFFFFFFFFFFFFF DUP3 GT ISZERO PUSH2 0x15C6 JUMPI PUSH2 0x15C5 PUSH2 0x1530 JUMP JUMPDEST JUMPDEST PUSH2 0x15CF DUP3 PUSH2 0x12B1 JUMP JUMPDEST SWAP1 POP PUSH1 0x20 DUP2 ADD SWAP1 POP SWAP2 SWAP1 POP JUMP JUMPDEST DUP3 DUP2 DUP4 CALLDATACOPY PUSH1 0x0 DUP4 DUP4 ADD MSTORE POP POP POP JUMP JUMPDEST PUSH1 0x0 PUSH2 0x15FE PUSH2 0x15F9 DUP5 PUSH2 0x15AB JUMP JUMPDEST PUSH2 0x1590 JUMP JUMPDEST SWAP1 POP DUP3 DUP2 MSTORE PUSH1 0x20 DUP2 ADD DUP5 DUP5 DUP5 ADD GT ISZERO PUSH2 0x161A JUMPI PUSH2 0x1619 PUSH2 0x152B JUMP JUMPDEST JUMPDEST PUSH2 0x1625 DUP5 DUP3 DUP6 PUSH2 0x15DC JUMP JUMPDEST POP SWAP4 SWAP3 POP POP POP JUMP JUMPDEST PUSH1 0x0 DUP3 PUSH1 0x1F DUP4 ADD SLT PUSH2 0x1642 JUMPI PUSH2 0x1641 PUSH2 0x1526 JUMP JUMPDEST JUMPDEST DUP2 CALLDATALOAD PUSH2 0x1652 DUP5 DUP3 PUSH1 0x20 DUP7 ADD PUSH2 0x15EB JUMP JUMPDEST SWAP2 POP POP SWAP3 SWAP2 POP POP JUMP JUMPDEST PUSH1 0x0 DUP1 PUSH1 0x0 PUSH1 0x60 DUP5 DUP7 SUB SLT ISZERO PUSH2 0x1674 JUMPI PUSH2 0x1673 PUSH2 0x151C JUMP JUMPDEST JUMPDEST PUSH1 0x0 DUP5 ADD CALLDATALOAD PUSH8 0xFFFFFFFFFFFFFFFF DUP2 GT ISZERO PUSH2 0x1692 JUMPI PUSH2 0x1691 PUSH2 0x1521 JUMP JUMPDEST JUMPDEST PUSH2 0x169E DUP7 DUP3 DUP8 ADD PUSH2 0x162D JUMP JUMPDEST SWAP4 POP POP PUSH1 0x20 DUP5 ADD CALLDATALOAD PUSH8 0xFFFFFFFFFFFFFFFF DUP2 GT ISZERO PUSH2 0x16BF JUMPI PUSH2 0x16BE PUSH2 0x1521 JUMP JUMPDEST JUMPDEST PUSH2 0x16CB DUP7 DUP3 DUP8 ADD PUSH2 0x162D JUMP JUMPDEST SWAP3 POP POP PUSH1 0x40 DUP5 ADD CALLDATALOAD PUSH8 0xFFFFFFFFFFFFFFFF DUP2 GT ISZERO PUSH2 0x16EC JUMPI PUSH2 0x16EB PUSH2 0x1521 JUMP JUMPDEST JUMPDEST PUSH2 0x16F8 DUP7 DUP3 DUP8 ADD PUSH2 0x162D JUMP JUMPDEST SWAP2 POP POP SWAP3 POP SWAP3 POP SWAP3 JUMP JUMPDEST PUSH2 0x170B DUP2 PUSH2 0x1252 JUMP JUMPDEST DUP3 MSTORE POP POP JUMP JUMPDEST PUSH1 0x0 PUSH1 0x20 DUP3 ADD SWAP1 POP PUSH2 0x1726 PUSH1 0x0 DUP4 ADD DUP5 PUSH2 0x1702 JUMP JUMPDEST SWAP3 SWAP2 POP POP JUMP JUMPDEST PUSH2 0x1735 DUP2 PUSH2 0x1252 JUMP JUMPDEST DUP2 EQ PUSH2 0x1740 JUMPI PUSH1 0x0 DUP1 REVERT JUMPDEST POP JUMP JUMPDEST PUSH1 0x0 DUP2 CALLDATALOAD SWAP1 POP PUSH2 0x1752 DUP2 PUSH2 0x172C JUMP JUMPDEST SWAP3 SWAP2 POP POP JUMP JUMPDEST PUSH1 0x0 DUP1 PUSH1 0x0 PUSH1 0x60 DUP5 DUP7 SUB SLT ISZERO PUSH2 0x1771 JUMPI PUSH2 0x1770 PUSH2 0x151C JUMP JUMPDEST JUMPDEST PUSH1 0x0 PUSH2 0x177F DUP7 DUP3 DUP8 ADD PUSH2 0x1743 JUMP JUMPDEST SWAP4 POP POP PUSH1 0x20 DUP5 ADD CALLDATALOAD PUSH8 0xFFFFFFFFFFFFFFFF DUP2 GT ISZERO PUSH2 0x17A0 JUMPI PUSH2 0x179F PUSH2 0x1521 JUMP JUMPDEST JUMPDEST PUSH2 0x17AC DUP7 DUP3 DUP8 ADD PUSH2 0x162D JUMP JUMPDEST SWAP3 POP POP PUSH1 0x40 DUP5 ADD CALLDATALOAD PUSH8 0xFFFFFFFFFFFFFFFF DUP2 GT ISZERO PUSH2 0x17CD JUMPI PUSH2 0x17CC PUSH2 0x1521 JUMP JUMPDEST JUMPDEST PUSH2 0x17D9 DUP7 DUP3 DUP8 ADD PUSH2 0x162D JUMP JUMPDEST SWAP2 POP POP SWAP3 POP SWAP3 POP SWAP3 JUMP JUMPDEST PUSH1 0x0 PUSH20 0xFFFFFFFFFFFFFFFFFFFFFFFFFFFFFFFFFFFFFFFF DUP3 AND SWAP1 POP SWAP2 SWAP1 POP JUMP JUMPDEST PUSH1 0x0 PUSH2 0x180E DUP3 PUSH2 0x17E3 JUMP JUMPDEST SWAP1 POP SWAP2 SWAP1 POP JUMP JUMPDEST PUSH2 0x181E DUP2 PUSH2 0x1803 JUMP JUMPDEST DUP3 MSTORE POP POP JUMP JUMPDEST PUSH1 0x0 PUSH1 0x20 DUP3 ADD SWAP1 POP PUSH2 0x1839 PUSH1 0x0 DUP4 ADD DUP5 PUSH2 0x1815 JUMP JUMPDEST SWAP3 SWAP2 POP POP JUMP JUMPDEST PUSH1 0x0 PUSH1 0x20 DUP3 DUP5 SUB SLT ISZERO PUSH2 0x1855 JUMPI PUSH2 0x1854 PUSH2 0x151C JUMP JUMPDEST JUMPDEST PUSH1 0x0 PUSH2 0x1863 DUP5 DUP3 DUP6 ADD PUSH2 0x1743 JUMP JUMPDEST SWAP2 POP POP SWAP3 SWAP2 POP POP JUMP JUMPDEST PUSH1 0x0 DUP3 DUP3 MSTORE PUSH1 0x20 DUP3 ADD SWAP1 POP SWAP3 SWAP2 POP POP JUMP JUMPDEST PUSH1 0x0 PUSH2 0x1888 DUP3 PUSH2 0x126B JUMP JUMPDEST PUSH2 0x1892 DUP2 DUP6 PUSH2 0x186C JUMP JUMPDEST SWAP4 POP PUSH2 0x18A2 DUP2 DUP6 PUSH1 0x20 DUP7 ADD PUSH2 0x1287 JUMP JUMPDEST PUSH2 0x18AB DUP2 PUSH2 0x12B1 JUMP JUMPDEST DUP5 ADD SWAP2 POP POP SWAP3 SWAP2 POP POP JUMP JUMPDEST PUSH2 0x18BF DUP2 PUSH2 0x1351 JUMP JUMPDEST DUP3 MSTORE POP POP JUMP JUMPDEST PUSH1 0x0 PUSH2 0x120 DUP3 ADD SWAP1 POP PUSH2 0x18DB PUSH1 0x0 DUP4 ADD DUP13 PUSH2 0x1702 JUMP JUMPDEST DUP2 DUP2 SUB PUSH1 0x20 DUP4 ADD MSTORE PUSH2 0x18ED DUP2 DUP12 PUSH2 0x187D JUMP JUMPDEST SWAP1 POP DUP2 DUP2 SUB PUSH1 0x40 DUP4 ADD MSTORE PUSH2 0x1901 DUP2 DUP11 PUSH2 0x187D JUMP JUMPDEST SWAP1 POP PUSH2 0x1910 PUSH1 0x60 DUP4 ADD DUP10 PUSH2 0x18B6 JUMP JUMPDEST DUP2 DUP2 SUB PUSH1 0x80 DUP4 ADD MSTORE PUSH2 0x1922 DUP2 DUP9 PUSH2 0x187D JUMP JUMPDEST SWAP1 POP DUP2 DUP2 SUB PUSH1 0xA0 DUP4 ADD MSTORE PUSH2 0x1936 DUP2 DUP8 PUSH2 0x187D JUMP JUMPDEST SWAP1 POP PUSH2 0x1945 PUSH1 0xC0 DUP4 ADD DUP7 PUSH2 0x1702 JUMP JUMPDEST DUP2 DUP2 SUB PUSH1 0xE0 DUP4 ADD MSTORE PUSH2 0x1957 DUP2 DUP6 PUSH2 0x187D JUMP JUMPDEST SWAP1 POP DUP2 DUP2 SUB PUSH2 0x100 DUP4 ADD MSTORE PUSH2 0x196C DUP2 DUP5 PUSH2 0x187D JUMP JUMPDEST SWAP1 POP SWAP11 SWAP10 POP POP POP POP POP POP POP POP POP POP JUMP JUMPDEST PUSH1 0x0 DUP1 PUSH1 0x40 DUP4 DUP6 SUB SLT ISZERO PUSH2 0x1993 JUMPI PUSH2 0x1992 PUSH2 0x151C JUMP JUMPDEST JUMPDEST PUSH1 0x0 PUSH2 0x19A1 DUP6 DUP3 DUP7 ADD PUSH2 0x1743 JUMP JUMPDEST SWAP3 POP POP PUSH1 0x20 DUP4 ADD CALLDATALOAD PUSH8 0xFFFFFFFFFFFFFFFF DUP2 GT ISZERO PUSH2 0x19C2 JUMPI PUSH2 0x19C1 PUSH2 0x1521 JUMP JUMPDEST JUMPDEST PUSH2 0x19CE DUP6 DUP3 DUP7 ADD PUSH2 0x162D JUMP JUMPDEST SWAP2 POP POP SWAP3 POP SWAP3 SWAP1 POP JUMP JUMPDEST PUSH1 0x6 DUP2 LT PUSH2 0x19E5 JUMPI PUSH1 0x0 DUP1 REVERT JUMPDEST POP JUMP JUMPDEST PUSH1 0x0 DUP2 CALLDATALOAD SWAP1 POP PUSH2 0x19F7 DUP2 PUSH2 0x19D8 JUMP JUMPDEST SWAP3 SWAP2 POP POP JUMP JUMPDEST PUSH1 0x0 DUP1 PUSH1 0x40 DUP4 DUP6 SUB SLT ISZERO PUSH2 0x1A14 JUMPI PUSH2 0x1A13 PUSH2 0x151C JUMP JUMPDEST JUMPDEST PUSH1 0x0 PUSH2 0x1A22 DUP6 DUP3 DUP7 ADD PUSH2 0x1743 JUMP JUMPDEST SWAP3 POP POP PUSH1 0x20 PUSH2 0x1A33 DUP6 DUP3 DUP7 ADD PUSH2 0x19E8 JUMP JUMPDEST SWAP2 POP POP SWAP3 POP SWAP3 SWAP1 POP JUMP JUMPDEST PUSH32 0x4E487B7100000000000000000000000000000000000000000000000000000000 PUSH1 0x0 MSTORE PUSH1 0x22 PUSH1 0x4 MSTORE PUSH1 0x24 PUSH1 0x0 REVERT JUMPDEST PUSH1 0x0 PUSH1 0x2 DUP3 DIV SWAP1 POP PUSH1 0x1 DUP3 AND DUP1 PUSH2 0x1A84 JUMPI PUSH1 0x7F DUP3 AND SWAP2 POP JUMPDEST PUSH1 0x20 DUP3 LT DUP2 SUB PUSH2 0x1A97 JUMPI PUSH2 0x1A96 PUSH2 0x1A3D JUMP JUMPDEST JUMPDEST POP SWAP2 SWAP1 POP JUMP JUMPDEST PUSH32 0x4E487B7100000000000000000000000000000000000000000000000000000000 PUSH1 0x0 MSTORE PUSH1 0x11 PUSH1 0x4 MSTORE PUSH1 0x24 PUSH1 0x0 REVERT JUMPDEST PUSH1 0x0 PUSH2 0x1AD7 DUP3 PUSH2 0x1252 JUMP JUMPDEST SWAP2 POP PUSH2 0x1AE2 DUP4 PUSH2 0x1252 JUMP JUMPDEST SWAP3 POP DUP3 DUP3 SUB SWAP1 POP DUP2 DUP2 GT ISZERO PUSH2 0x1AFA JUMPI PUSH2 0x1AF9 PUSH2 0x1A9D JUMP JUMPDEST JUMPDEST SWAP3 SWAP2 POP POP JUMP JUMPDEST PUSH32 0x4E487B7100000000000000000000000000000000000000000000000000000000 PUSH1 0x0 MSTORE PUSH1 0x32 PUSH1 0x4 MSTORE PUSH1 0x24 PUSH1 0x0 REVERT JUMPDEST PUSH1 0x0 PUSH2 0x1B3A DUP3 PUSH2 0x1252 JUMP JUMPDEST SWAP2 POP PUSH32 0xFFFFFFFFFFFFFFFFFFFFFFFFFFFFFFFFFFFFFFFFFFFFFFFFFFFFFFFFFFFFFFFF DUP3 SUB PUSH2 0x1B6C JUMPI PUSH2 0x1B6B PUSH2 0x1A9D JUMP JUMPDEST JUMPDEST PUSH1 0x1 DUP3 ADD SWAP1 POP SWAP2 SWAP1 POP JUMP JUMPDEST PUSH32 0x436974697A656E2063616E6E6F7420626520656D707479000000000000000000 PUSH1 0x0 DUP3 ADD MSTORE POP JUMP JUMPDEST PUSH1 0x0 PUSH2 0x1BAD PUSH1 0x17 DUP4 PUSH2 0x186C JUMP JUMPDEST SWAP2 POP PUSH2 0x1BB8 DUP3 PUSH2 0x1B77 JUMP JUMPDEST PUSH1 0x20 DUP3 ADD SWAP1 POP SWAP2 SWAP1 POP JUMP JUMPDEST PUSH1 0x0 PUSH1 0x20 DUP3 ADD SWAP1 POP DUP2 DUP2 SUB PUSH1 0x0 DUP4 ADD MSTORE PUSH2 0x1BDC DUP2 PUSH2 0x1BA0 JUMP JUMPDEST SWAP1 POP SWAP2 SWAP1 POP JUMP JUMPDEST PUSH32 0x4465736372697074696F6E2063616E6E6F7420626520656D7074790000000000 PUSH1 0x0 DUP3 ADD MSTORE POP JUMP JUMPDEST PUSH1 0x0 PUSH2 0x1C19 PUSH1 0x1B DUP4 PUSH2 0x186C JUMP JUMPDEST SWAP2 POP PUSH2 0x1C24 DUP3 PUSH2 0x1BE3 JUMP JUMPDEST PUSH1 0x20 DUP3 ADD SWAP1 POP SWAP2 SWAP1 POP JUMP JUMPDEST PUSH1 0x0 PUSH1 0x20 DUP3 ADD SWAP1 POP DUP2 DUP2 SUB PUSH1 0x0 DUP4 ADD MSTORE PUSH2 0x1C48 DUP2 PUSH2 0x1C0C JUMP JUMPDEST SWAP1 POP SWAP2 SWAP1 POP JUMP JUMPDEST PUSH32 0x506F7374206F666669636520636F64652063616E6E6F7420626520656D707479 PUSH1 0x0 DUP3 ADD MSTORE POP JUMP JUMPDEST PUSH1 0x0 PUSH2 0x1C85 PUSH1 0x20 DUP4 PUSH2 0x186C JUMP JUMPDEST SWAP2 POP PUSH2 0x1C90 DUP3 PUSH2 0x1C4F JUMP JUMPDEST PUSH1 0x20 DUP3 ADD SWAP1 POP SWAP2 SWAP1 POP JUMP JUMPDEST PUSH1 0x0 PUSH1 0x20 DUP3 ADD SWAP1 POP DUP2 DUP2 SUB PUSH1 0x0 DUP4 ADD MSTORE PUSH2 0x1CB4 DUP2 PUSH2 0x1C78 JUMP JUMPDEST SWAP1 POP SWAP2 SWAP1 POP JUMP JUMPDEST PUSH1 0x0 DUP2 SWAP1 POP DUP2 PUSH1 0x0 MSTORE PUSH1 0x20 PUSH1 0x0 KECCAK256 SWAP1 POP SWAP2 SWAP1 POP JUMP JUMPDEST PUSH1 0x0 PUSH1 0x20 PUSH1 0x1F DUP4 ADD DIV SWAP1 POP SWAP2 SWAP1 POP JUMP JUMPDEST PUSH1 0x0 DUP3 DUP3 SHL SWAP1 POP SWAP3 SWAP2 POP POP JUMP JUMPDEST PUSH1 0x0 PUSH1 0x8 DUP4 MUL PUSH2 0x1D1D PUSH32 0xFFFFFFFFFFFFFFFFFFFFFFFFFFFFFFFFFFFFFFFFFFFFFFFFFFFFFFFFFFFFFFFF DUP3 PUSH2 0x1CE0 JUMP JUMPDEST PUSH2 0x1D27 DUP7 DUP4 PUSH2 0x1CE0 JUMP JUMPDEST SWAP6 POP DUP1 NOT DUP5 AND SWAP4 POP DUP1 DUP7 AND DUP5 OR SWAP3 POP POP POP SWAP4 SWAP3 POP POP POP JUMP JUMPDEST PUSH1 0x0 DUP2 SWAP1 POP SWAP2 SWAP1 POP JUMP JUMPDEST PUSH1 0x0 PUSH2 0x1D64 PUSH2 0x1D5F PUSH2 0x1D5A DUP5 PUSH2 0x1252 JUMP JUMPDEST PUSH2 0x1D3F JUMP JUMPDEST PUSH2 0x1252 JUMP JUMPDEST SWAP1 POP SWAP2 SWAP1 POP JUMP JUMPDEST PUSH1 0x0 DUP2 SWAP1 POP SWAP2 SWAP1 POP JUMP JUMPDEST PUSH2 0x1D7E DUP4 PUSH2 0x1D49 JUMP JUMPDEST PUSH2 0x1D92 PUSH2 0x1D8A DUP3 PUSH2 0x1D6B JUMP JUMPDEST DUP5 DUP5 SLOAD PUSH2 0x1CED JUMP JUMPDEST DUP3 SSTORE POP POP POP POP JUMP JUMPDEST PUSH1 0x0 SWAP1 JUMP JUMPDEST PUSH2 0x1DA7 PUSH2 0x1D9A JUMP JUMPDEST PUSH2 0x1DB2 DUP2 DUP5 DUP5 PUSH2 0x1D75 JUMP JUMPDEST POP POP POP JUMP JUMPDEST JUMPDEST DUP2 DUP2 LT ISZERO PUSH2 0x1DD6 JUMPI PUSH2 0x1DCB PUSH1 0x0 DUP3 PUSH2 0x1D9F JUMP JUMPDEST PUSH1 0x1 DUP2 ADD SWAP1 POP PUSH2 0x1DB8 JUMP JUMPDEST POP POP JUMP JUMPDEST PUSH1 0x1F DUP3 GT ISZERO PUSH2 0x1E1B JUMPI PUSH2 0x1DEC DUP2 PUSH2 0x1CBB JUMP JUMPDEST PUSH2 0x1DF5 DUP5 PUSH2 0x1CD0 JUMP JUMPDEST DUP2 ADD PUSH1 0x20 DUP6 LT ISZERO PUSH2 0x1E04 JUMPI DUP2 SWAP1 POP JUMPDEST PUSH2 0x1E18 PUSH2 0x1E10 DUP6 PUSH2 0x1CD0 JUMP JUMPDEST DUP4 ADD DUP3 PUSH2 0x1DB7 JUMP JUMPDEST POP POP JUMPDEST POP POP POP JUMP JUMPDEST PUSH1 0x0 DUP3 DUP3 SHR SWAP1 POP SWAP3 SWAP2 POP POP JUMP JUMPDEST PUSH1 0x0 PUSH2 0x1E3E PUSH1 0x0 NOT DUP5 PUSH1 0x8 MUL PUSH2 0x1E20 JUMP JUMPDEST NOT DUP1 DUP4 AND SWAP2 POP POP SWAP3 SWAP2 POP POP JUMP JUMPDEST PUSH1 0x0 PUSH2 0x1E57 DUP4 DUP4 PUSH2 0x1E2D JUMP JUMPDEST SWAP2 POP DUP3 PUSH1 0x2 MUL DUP3 OR SWAP1 POP SWAP3 SWAP2 POP POP JUMP JUMPDEST PUSH2 0x1E70 DUP3 PUSH2 0x126B JUMP JUMPDEST PUSH8 0xFFFFFFFFFFFFFFFF DUP2 GT ISZERO PUSH2 0x1E89 JUMPI PUSH2 0x1E88 PUSH2 0x1530 JUMP JUMPDEST JUMPDEST PUSH2 0x1E93 DUP3 SLOAD PUSH2 0x1A6C JUMP JUMPDEST PUSH2 0x1E9E DUP3 DUP3 DUP6 PUSH2 0x1DDA JUMP JUMPDEST PUSH1 0x0 PUSH1 0x20 SWAP1 POP PUSH1 0x1F DUP4 GT PUSH1 0x1 DUP2 EQ PUSH2 0x1ED1 JUMPI PUSH1 0x0 DUP5 ISZERO PUSH2 0x1EBF JUMPI DUP3 DUP8 ADD MLOAD SWAP1 POP JUMPDEST PUSH2 0x1EC9 DUP6 DUP3 PUSH2 0x1E4B JUMP JUMPDEST DUP7 SSTORE POP PUSH2 0x1F31 JUMP JUMPDEST PUSH1 0x1F NOT DUP5 AND PUSH2 0x1EDF DUP7 PUSH2 0x1CBB JUMP JUMPDEST PUSH1 0x0 JUMPDEST DUP3 DUP2 LT ISZERO PUSH2 0x1F07 JUMPI DUP5 DUP10 ADD MLOAD DUP3 SSTORE PUSH1 0x1 DUP3 ADD SWAP2 POP PUSH1 0x20 DUP6 ADD SWAP5 POP PUSH1 0x20 DUP2 ADD SWAP1 POP PUSH2 0x1EE2 JUMP JUMPDEST DUP7 DUP4 LT ISZERO PUSH2 0x1F24 JUMPI DUP5 DUP10 ADD MLOAD PUSH2 0x1F20 PUSH1 0x1F DUP10 AND DUP3 PUSH2 0x1E2D JUMP JUMPDEST DUP4 SSTORE POP JUMPDEST PUSH1 0x1 PUSH1 0x2 DUP9 MUL ADD DUP9 SSTORE POP POP POP JUMPDEST POP POP POP POP POP POP JUMP JUMPDEST PUSH1 0x0 PUSH1 0x80 DUP3 ADD SWAP1 POP PUSH2 0x1F4E PUSH1 0x0 DUP4 ADD DUP8 PUSH2 0x1702 JUMP JUMPDEST DUP2 DUP2 SUB PUSH1 0x20 DUP4 ADD MSTORE PUSH2 0x1F60 DUP2 DUP7 PUSH2 0x187D JUMP JUMPDEST SWAP1 POP DUP2 DUP2 SUB PUSH1 0x40 DUP4 ADD MSTORE PUSH2 0x1F74 DUP2 DUP6 PUSH2 0x187D JUMP JUMPDEST SWAP1 POP DUP2 DUP2 SUB PUSH1 0x60 DUP4 ADD MSTORE PUSH2 0x1F88 DUP2 DUP5 PUSH2 0x187D JUMP JUMPDEST SWAP1 POP SWAP6 SWAP5 POP POP POP POP POP JUMP JUMPDEST PUSH32 0x436F6D706C61696E7420646F6573206E6F742065786973740000000000000000 PUSH1 0x0 DUP3 ADD MSTORE POP JUMP JUMPDEST PUSH1 0x0 PUSH2 0x1FC9 PUSH1 0x18 DUP4 PUSH2 0x186C JUMP JUMPDEST SWAP2 POP PUSH2 0x1FD4 DUP3 PUSH2 0x1F93 JUMP JUMPDEST PUSH1 0x20 DUP3 ADD SWAP1 POP SWAP2 SWAP1 POP JUMP JUMPDEST PUSH1 0x0 PUSH1 0x20 DUP3 ADD SWAP1 POP DUP2 DUP2 SUB PUSH1 0x0 DUP4 ADD MSTORE PUSH2 0x1FF8 DUP2 PUSH2 0x1FBC JUMP JUMPDEST SWAP1 POP SWAP2 SWAP1 POP JUMP JUMPDEST PUSH32 0x466565646261636B20617574686F722063616E6E6F7420626520656D70747900 PUSH1 0x0 DUP3 ADD MSTORE POP JUMP JUMPDEST PUSH1 0x0 PUSH2 0x2035 PUSH1 0x1F DUP4 PUSH2 0x186C JUMP JUMPDEST SWAP2 POP PUSH2 0x2040 DUP3 PUSH2 0x1FFF JUMP JUMPDEST PUSH1 0x20 DUP3 ADD SWAP1 POP SWAP2 SWAP1 POP JUMP JUMPDEST PUSH1 0x0 PUSH1 0x20 DUP3 ADD SWAP1 POP DUP2 DUP2 SUB PUSH1 0x0 DUP4 ADD MSTORE PUSH2 0x2064 DUP2 PUSH2 0x2028 JUMP JUMPDEST SWAP1 POP SWAP2 SWAP1 POP JUMP JUMPDEST PUSH32 0x466565646261636B2063616E6E6F7420626520656D7074790000000000000000 PUSH1 0x0 DUP3 ADD MSTORE POP JUMP JUMPDEST PUSH1 0x0 PUSH2 0x20A1 PUSH1 0x18 DUP4 PUSH2 0x186C JUMP JUMPDEST SWAP2 POP PUSH2 0x20AC DUP3 PUSH2 0x206B JUMP JUMPDEST PUSH1 0x20 DUP3 ADD SWAP1 POP SWAP2 SWAP1 POP JUMP JUMPDEST PUSH1 0x0 PUSH1 0x20 DUP3 ADD SWAP1 POP DUP2 DUP2 SUB PUSH1 0x0 DUP4 ADD MSTORE PUSH2 0x20D0 DUP2 PUSH2 0x2094 JUMP JUMPDEST SWAP1 POP SWAP2 SWAP1 POP JUMP JUMPDEST PUSH1 0x0 PUSH1 0x60 DUP3 ADD SWAP1 POP PUSH2 0x20EC PUSH1 0x0 DUP4 ADD DUP7 PUSH2 0x1702 JUMP JUMPDEST DUP2 DUP2 SUB PUSH1 0x20 DUP4 ADD MSTORE PUSH2 0x20FE DUP2 DUP6 PUSH2 0x187D JUMP JUMPDEST SWAP1 POP DUP2 DUP2 SUB PUSH1 0x40 DUP4 ADD MSTORE PUSH2 0x2112 DUP2 DUP5 PUSH2 0x187D JUMP JUMPDEST SWAP1 POP SWAP5 SWAP4 POP POP POP POP JUMP JUMPDEST PUSH32 0x4F6E6C79207468652061646D696E2063616E20706572666F726D207468697320 PUSH1 0x0 DUP3 ADD MSTORE PUSH32 0x616374696F6E0000000000000000000000000000000000000000000000000000 PUSH1 0x20 DUP3 ADD MSTORE POP JUMP JUMPDEST PUSH1 0x0 PUSH2 0x2178 PUSH1 0x26 DUP4 PUSH2 0x186C JUMP JUMPDEST SWAP2 POP PUSH2 0x2183 DUP3 PUSH2 0x211C JUMP JUMPDEST PUSH1 0x40 DUP3 ADD SWAP1 POP SWAP2 SWAP1 POP JUMP JUMPDEST PUSH1 0x0 PUSH1 0x20 DUP3 ADD SWAP1 POP DUP2 DUP2 SUB PUSH1 0x0 DUP4 ADD MSTORE PUSH2 0x21A7 DUP2 PUSH2 0x216B JUMP JUMPDEST SWAP1 POP SWAP2 SWAP1 POP JUMP JUMPDEST PUSH32 0x5374616666206E616D652063616E6E6F7420626520656D707479000000000000 PUSH1 0x0 DUP3 ADD MSTORE POP JUMP JUMPDEST PUSH1 0x0 PUSH2 0x21E4 PUSH1 0x1A DUP4 PUSH2 0x186C JUMP JUMPDEST SWAP2 POP PUSH2 0x21EF DUP3 PUSH2 0x21AE JUMP JUMPDEST PUSH1 0x20 DUP3 ADD SWAP1 POP SWAP2 SWAP1 POP JUMP JUMPDEST PUSH1 0x0 PUSH1 0x20 DUP3 ADD SWAP1 POP DUP2 DUP2 SUB PUSH1 0x0 DUP4 ADD MSTORE PUSH2 0x2213 DUP2 PUSH2 0x21D7 JUMP JUMPDEST SWAP1 POP SWAP2 SWAP1 POP JUMP JUMPDEST PUSH1 0x0 PUSH1 0x40 DUP3 ADD SWAP1 POP PUSH2 0x222F PUSH1 0x0 DUP4 ADD DUP6 PUSH2 0x1702 JUMP JUMPDEST DUP2 DUP2 SUB PUSH1 0x20 DUP4 ADD MSTORE PUSH2 0x2241 DUP2 DUP5 PUSH2 0x187D JUMP JUMPDEST SWAP1 POP SWAP4 SWAP3 POP POP POP JUMP JUMPDEST PUSH1 0x0 PUSH1 0x40 DUP3 ADD SWAP1 POP PUSH2 0x225F PUSH1 0x0 DUP4 ADD DUP6 PUSH2 0x1702 JUMP JUMPDEST PUSH2 0x226C PUSH1 0x20 DUP4 ADD DUP5 PUSH2 0x18B6 JUMP JUMPDEST SWAP4 SWAP3 POP POP POP JUMP INVALID LOG2 PUSH5 0x6970667358 0x22 SLT KECCAK256 LOG4 SUB RETURNDATACOPY 0xC7 0xE3 0xF8 0xC PUSH7 0x8BC926D2AD8AAB SWAP9 RETURN 0xAC 0xDC 0xFC 0xB7 DUP9 SWAP1 0x4E 0xB6 0xE1 0xAD 0xDB RETURNDATACOPY 0xE0 0x25 0xFB PUSH5 0x736F6C6343 STOP ADDMOD SHL STOP CALLER "},"methodIdentifiers":{"addFeedback(uint256,string,string)":"b608c9e6","assignStaff(uint256,string)":"e98b7428","fileComplaint(string,string,string)":"2227454c","getAllComplaints()":"0dac9539","getComplaint(uint256)":"dee8ae43","getComplaintCount()":"8896cb81","postOfficeAdmin()":"b944bd0f","updateComplaintStatus(uint256,uint8)":"f1d1c097"}}}}}