{
  "_format": "hh-sol-artifact-1",
  "contractName": "PostSevaComplaints",
  "sourceName": "contracts/PostSevaComplaints.sol",
  "abi": [
    {
      "inputs": [],
      "stateMutability": "nonpayable",
      "type": "constructor"
    },
    {
      "anonymous": false,
      "inputs": [
        {
          "indexed": false,
          "internalType": "uint256",
          "name": "complaintId",
          "type": "uint256"
        },
        {
          "indexed": true,
          "internalType": "address",
          "name": "citizen",
          "type": "address"
        },
        {
          "indexed": false,
          "internalType": "string",
          "name": "description",
          "type": "string"
        },
        {
          "indexed": false,
          "internalType": "string",
          "name": "postOfficeCode",
          "type": "string"
        }
      ],
      "name": "ComplaintFiled",
      "type": "event"
    },
    {
      "anonymous": false,
      "inputs": [
        {
          "indexed": false,
          "internalType": "uint256",
          "name": "complaintId",
          "type": "uint256"
        },
        {
          "indexed": false,
          "internalType": "enum PostSevaComplaints.Status",
          "name": "status",
          "type": "uint8"
        }
      ],
      "name": "ComplaintUpdated",
      "type": "event"
    },
    {
      "anonymous": false,
      "inputs": [
        {
          "indexed": false,
          "internalType": "uint256",
          "name": "complaintId",
          "type": "uint256"
        },
        {
          "indexed": false,
          "internalType": "string",
          "name": "staffName",
          "type": "string"
        }
      ],
      "name": "StaffAssigned",
      "type": "event"
    },
    {
      "inputs": [
        {
          "internalType": "uint256",
          "name": "_complaintId",
          "type": "uint256"
        },
        {
          "internalType": "string",
          "name": "_staffName",
          "type": "string"
        }
      ],
      "name": "assignStaff",
      "outputs": [],
      "stateMutability": "nonpayable",
      "type": "function"
    },
    {
      "inputs": [
        {
          "internalType": "string",
          "name": "_description",
          "type": "string"
        },
        {
          "internalType": "string",
          "name": "_postOfficeCode",
          "type": "string"
        }
      ],
      "name": "fileComplaint",
      "outputs": [],
      "stateMutability": "nonpayable",
      "type": "function"
    },
    {
      "inputs": [],
      "name": "getAllComplaints",
      "outputs": [
        {
          "components": [
            {
              "internalType": "uint256",
              "name": "id",
              "type": "uint256"
            },
            {
              "internalType": "address",
              "name": "citizen",
              "type": "address"
            },
            {
              "internalType": "string",
              "name": "description",
              "type": "string"
            },
            {
              "internalType": "enum PostSevaComplaints.Status",
              "name": "status",
              "type": "uint8"
            },
            {
              "internalType": "string",
              "name": "staffName",
              "type": "string"
            },
            {
              "internalType": "string",
              "name": "postOfficeCode",
              "type": "string"
            },
            {
              "internalType": "uint256",
              "name": "timestamp",
              "type": "uint256"
            }
          ],
          "internalType": "struct PostSevaComplaints.Complaint[]",
          "name": "",
          "type": "tuple[]"
        }
      ],
      "stateMutability": "view",
      "type": "function"
    },
    {
      "inputs": [
        {
          "internalType": "uint256",
          "name": "_complaintId",
          "type": "uint256"
        }
      ],
      "name": "getComplaint",
      "outputs": [
        {
          "internalType": "uint256",
          "name": "id",
          "type": "uint256"
        },
        {
          "internalType": "address",
          "name": "citizen",
          "type": "address"
        },
        {
          "internalType": "string",
          "name": "description",
          "type": "string"
        },
        {
          "internalType": "enum PostSevaComplaints.Status",
          "name": "status",
          "type": "uint8"
        },
        {
          "internalType": "string",
          "name": "staffName",
          "type": "string"
        },
        {
          "internalType": "string",
          "name": "postOfficeCode",
          "type": "string"
        },
        {
          "internalType": "uint256",
          "name": "timestamp",
          "type": "uint256"
        }
      ],
      "stateMutability": "view",
      "type": "function"
    },
    {
      "inputs": [],
      "name": "getComplaintCount",
      "outputs": [
        {
          "internalType": "uint256",
          "name": "",
          "type": "uint256"
        }
      ],
      "stateMutability": "view",
      "type": "function"
    },
    {
      "inputs": [],
      "name": "postOfficeAdmin",
      "outputs": [
        {
          "internalType": "address",
          "name": "",
          "type": "address"
        }
      ],
      "stateMutability": "view",
      "type": "function"
    },
    {
      "inputs": [
        {
          "internalType": "uint256",
          "name": "_complaintId",
          "type": "uint256"
        },
        {
          "internalType": "enum PostSevaComplaints.Status",
          "name": "_status",
          "type": "uint8"
        }
      ],
      "name": "updateComplaintStatus",
      "outputs": [],
      "stateMutability": "nonpayable",
      "type": "function"
    }
  ],
  "bytecode": "0x608060405260008055348015601357600080fd5b5033600260006101000a81548173ffffffffffffffffffffffffffffffffffffffff021916908373ffffffffffffffffffffffffffffffffffffffff160217905550611b4b806100646000396000f3fe608060405234801561001057600080fd5b506004361061007d5760003560e01c8063b944bd0f1161005b578063b944bd0f146100da578063dee8ae43146100f8578063e98b74281461012e578063f1d1c0971461014a5761007d565b80630dac9539146100825780636d1727e9146100a05780638896cb81146100bc575b600080fd5b61008a610166565b604051610097919061104f565b60405180910390f35b6100ba60048036038101906100b591906111ba565b61048f565b005b6100c46106d7565b6040516100d19190611241565b60405180910390f35b6100e26106e0565b6040516100ef919061126b565b60405180910390f35b610112600480360381019061010d91906112b2565b610706565b6040516101259796959493929190611338565b60405180910390f35b610148600480360381019061014391906113bc565b610a27565b005b610164600480360381019061015f919061143d565b610bb7565b005b60606000805467ffffffffffffffff8111156101855761018461108f565b5b6040519080825280602002602001820160405280156101be57816020015b6101ab610d1d565b8152602001906001900390816101a35790505b5090506000600190505b600054811161048757600160008281526020019081526020016000206040518060e0016040529081600082015481526020016001820160009054906101000a900473ffffffffffffffffffffffffffffffffffffffff1673ffffffffffffffffffffffffffffffffffffffff1673ffffffffffffffffffffffffffffffffffffffff16815260200160028201805461025f906114ac565b80601f016020809104026020016040519081016040528092919081815260200182805461028b906114ac565b80156102d85780601f106102ad576101008083540402835291602001916102d8565b820191906000526020600020905b8154815290600101906020018083116102bb57829003601f168201915b505050505081526020016003820160009054906101000a900460ff16600381111561030657610305610e98565b5b600381111561031857610317610e98565b5b815260200160048201805461032c906114ac565b80601f0160208091040260200160405190810160405280929190818152602001828054610358906114ac565b80156103a55780601f1061037a576101008083540402835291602001916103a5565b820191906000526020600020905b81548152906001019060200180831161038857829003601f168201915b505050505081526020016005820180546103be906114ac565b80601f01602080910402602001604051908101604052809291908181526020018280546103ea906114ac565b80156104375780601f1061040c57610100808354040283529160200191610437565b820191906000526020600020905b81548152906001019060200180831161041a57829003601f168201915b5050505050815260200160068201548152505082600183610458919061150c565b8151811061046957610468611540565b5b6020026020010181905250808061047f9061156f565b9150506101c8565b508091505090565b60008251116104d3576040517f08c379a00000000000000000000000000000000000000000000000000000000081526004016104ca90611603565b60405180910390fd5b6000815111610517576040517f08c379a000000000000000000000000000000000000000000000000000000000815260040161050e9061166f565b60405180910390fd5b6000808154809291906105299061156f565b91905055506040518060e0016040528060005481526020013373ffffffffffffffffffffffffffffffffffffffff1681526020018381526020016000600381111561057757610576610e98565b5b81526020016040518060200160405280600081525081526020018281526020014281525060016000805481526020019081526020016000206000820151816000015560208201518160010160006101000a81548173ffffffffffffffffffffffffffffffffffffffff021916908373ffffffffffffffffffffffffffffffffffffffff1602179055506040820151816002019081610615919061183b565b5060608201518160030160006101000a81548160ff0219169083600381111561064157610640610e98565b5b0217905550608082015181600401908161065b919061183b565b5060a0820151816005019081610671919061183b565b5060c082015181600601559050503373ffffffffffffffffffffffffffffffffffffffff167ff47e3d861d1d583509a78c244be939f5fdef9d346bf30eed87b0ee6e84817e3060005484846040516106cb9392919061190d565b60405180910390a25050565b60008054905090565b600260009054906101000a900473ffffffffffffffffffffffffffffffffffffffff1681565b60008060606000606080600087600060016000838152602001908152602001600020600601540361076c576040517f08c379a00000000000000000000000000000000000000000000000000000000081526004016107639061199e565b60405180910390fd5b6000600160008b81526020019081526020016000206040518060e0016040529081600082015481526020016001820160009054906101000a900473ffffffffffffffffffffffffffffffffffffffff1673ffffffffffffffffffffffffffffffffffffffff1673ffffffffffffffffffffffffffffffffffffffff1681526020016002820180546107fc906114ac565b80601f0160208091040260200160405190810160405280929190818152602001828054610828906114ac565b80156108755780601f1061084a57610100808354040283529160200191610875565b820191906000526020600020905b81548152906001019060200180831161085857829003601f168201915b505050505081526020016003820160009054906101000a900460ff1660038111156108a3576108a2610e98565b5b60038111156108b5576108b4610e98565b5b81526020016004820180546108c9906114ac565b80601f01602080910402602001604051908101604052809291908181526020018280546108f5906114ac565b80156109425780601f1061091757610100808354040283529160200191610942565b820191906000526020600020905b81548152906001019060200180831161092557829003601f168201915b5050505050815260200160058201805461095b906114ac565b80601f0160208091040260200160405190810160405280929190818152602001828054610987906114ac565b80156109d45780601f106109a9576101008083540402835291602001916109d4565b820191906000526020600020905b8154815290600101906020018083116109b757829003601f168201915b505050505081526020016006820154815250509050806000015181602001518260400151836060015184608001518560a001518660c0015198509850985098509850985098505050919395979092949650565b600260009054906101000a900473ffffffffffffffffffffffffffffffffffffffff1673ffffffffffffffffffffffffffffffffffffffff163373ffffffffffffffffffffffffffffffffffffffff1614610ab7576040517f08c379a0000000000000000000000000000000000000000000000000000000008152600401610aae90611a30565b60405180910390fd5b816000600160008381526020019081526020016000206006015403610b11576040517f08c379a0000000000000000000000000000000000000000000000000000000008152600401610b089061199e565b60405180910390fd5b6000825111610b55576040517f08c379a0000000000000000000000000000000000000000000000000000000008152600401610b4c90611a9c565b60405180910390fd5b81600160008581526020019081526020016000206004019081610b78919061183b565b507f2c850769ba2794d7b52ea8e547f2d7536a1f39633ad0267673c709807ee98b058383604051610baa929190611abc565b60405180910390a1505050565b600260009054906101000a900473ffffffffffffffffffffffffffffffffffffffff1673ffffffffffffffffffffffffffffffffffffffff163373ffffffffffffffffffffffffffffffffffffffff1614610c47576040517f08c379a0000000000000000000000000000000000000000000000000000000008152600401610c3e90611a30565b60405180910390fd5b816000600160008381526020019081526020016000206006015403610ca1576040517f08c379a0000000000000000000000000000000000000000000000000000000008152600401610c989061199e565b60405180910390fd5b816001600085815260200190815260200160002060030160006101000a81548160ff02191690836003811115610cda57610cd9610e98565b5b02179055507fc2daa0532d44d67167061530be45cf08aa66dcec7aea6aeb2888fed682e5f12b8383604051610d10929190611aec565b60405180910390a1505050565b6040518060e0016040528060008152602001600073ffffffffffffffffffffffffffffffffffffffff1681526020016060815260200160006003811115610d6757610d66610e98565b5b81526020016060815260200160608152602001600081525090565b600081519050919050565b600082825260208201905092915050565b6000819050602082019050919050565b6000819050919050565b610dc181610dae565b82525050565b600073ffffffffffffffffffffffffffffffffffffffff82169050919050565b6000610df282610dc7565b9050919050565b610e0281610de7565b82525050565b600081519050919050565b600082825260208201905092915050565b60005b83811015610e42578082015181840152602081019050610e27565b60008484015250505050565b6000601f19601f8301169050919050565b6000610e6a82610e08565b610e748185610e13565b9350610e84818560208601610e24565b610e8d81610e4e565b840191505092915050565b7f4e487b7100000000000000000000000000000000000000000000000000000000600052602160045260246000fd5b60048110610ed857610ed7610e98565b5b50565b6000819050610ee982610ec7565b919050565b6000610ef982610edb565b9050919050565b610f0981610eee565b82525050565b600060e083016000830151610f276000860182610db8565b506020830151610f3a6020860182610df9565b5060408301518482036040860152610f528282610e5f565b9150506060830151610f676060860182610f00565b5060808301518482036080860152610f7f8282610e5f565b91505060a083015184820360a0860152610f998282610e5f565b91505060c0830151610fae60c0860182610db8565b508091505092915050565b6000610fc58383610f0f565b905092915050565b6000602082019050919050565b6000610fe582610d82565b610fef8185610d8d565b93508360208202850161100185610d9e565b8060005b8581101561103d578484038952815161101e8582610fb9565b945061102983610fcd565b925060208a01995050600181019050611005565b50829750879550505050505092915050565b600060208201905081810360008301526110698184610fda565b905092915050565b6000604051905090565b600080fd5b600080fd5b600080fd5b600080fd5b7f4e487b7100000000000000000000000000000000000000000000000000000000600052604160045260246000fd5b6110c782610e4e565b810181811067ffffffffffffffff821117156110e6576110e561108f565b5b80604052505050565b60006110f9611071565b905061110582826110be565b919050565b600067ffffffffffffffff8211156111255761112461108f565b5b61112e82610e4e565b9050602081019050919050565b82818337600083830152505050565b600061115d6111588461110a565b6110ef565b9050828152602081018484840111156111795761117861108a565b5b61118484828561113b565b509392505050565b600082601f8301126111a1576111a0611085565b5b81356111b184826020860161114a565b91505092915050565b600080604083850312156111d1576111d061107b565b5b600083013567ffffffffffffffff8111156111ef576111ee611080565b5b6111fb8582860161118c565b925050602083013567ffffffffffffffff81111561121c5761121b611080565b5b6112288582860161118c565b9150509250929050565b61123b81610dae565b82525050565b60006020820190506112566000830184611232565b92915050565b61126581610de7565b82525050565b6000602082019050611280600083018461125c565b92915050565b61128f81610dae565b811461129a57600080fd5b50565b6000813590506112ac81611286565b92915050565b6000602082840312156112c8576112c761107b565b5b60006112d68482850161129d565b91505092915050565b600082825260208201905092915050565b60006112fb82610e08565b61130581856112df565b9350611315818560208601610e24565b61131e81610e4e565b840191505092915050565b61133281610eee565b82525050565b600060e08201905061134d600083018a611232565b61135a602083018961125c565b818103604083015261136c81886112f0565b905061137b6060830187611329565b818103608083015261138d81866112f0565b905081810360a08301526113a181856112f0565b90506113b060c0830184611232565b98975050505050505050565b600080604083850312156113d3576113d261107b565b5b60006113e18582860161129d565b925050602083013567ffffffffffffffff81111561140257611401611080565b5b61140e8582860161118c565b9150509250929050565b6004811061142557600080fd5b50565b60008135905061143781611418565b92915050565b600080604083850312156114545761145361107b565b5b60006114628582860161129d565b925050602061147385828601611428565b9150509250929050565b7f4e487b7100000000000000000000000000000000000000000000000000000000600052602260045260246000fd5b600060028204905060018216806114c457607f821691505b6020821081036114d7576114d661147d565b5b50919050565b7f4e487b7100000000000000000000000000000000000000000000000000000000600052601160045260246000fd5b600061151782610dae565b915061152283610dae565b925082820390508181111561153a576115396114dd565b5b92915050565b7f4e487b7100000000000000000000000000000000000000000000000000000000600052603260045260246000fd5b600061157a82610dae565b91507fffffffffffffffffffffffffffffffffffffffffffffffffffffffffffffffff82036115ac576115ab6114dd565b5b600182019050919050565b7f4465736372697074696f6e2063616e6e6f7420626520656d7074790000000000600082015250565b60006115ed601b836112df565b91506115f8826115b7565b602082019050919050565b6000602082019050818103600083015261161c816115e0565b9050919050565b7f506f7374206f666669636520636f64652063616e6e6f7420626520656d707479600082015250565b60006116596020836112df565b915061166482611623565b602082019050919050565b600060208201905081810360008301526116888161164c565b9050919050565b60008190508160005260206000209050919050565b60006020601f8301049050919050565b600082821b905092915050565b6000600883026116f17fffffffffffffffffffffffffffffffffffffffffffffffffffffffffffffffff826116b4565b6116fb86836116b4565b95508019841693508086168417925050509392505050565b6000819050919050565b600061173861173361172e84610dae565b611713565b610dae565b9050919050565b6000819050919050565b6117528361171d565b61176661175e8261173f565b8484546116c1565b825550505050565b600090565b61177b61176e565b611786818484611749565b505050565b5b818110156117aa5761179f600082611773565b60018101905061178c565b5050565b601f8211156117ef576117c08161168f565b6117c9846116a4565b810160208510156117d8578190505b6117ec6117e4856116a4565b83018261178b565b50505b505050565b600082821c905092915050565b6000611812600019846008026117f4565b1980831691505092915050565b600061182b8383611801565b9150826002028217905092915050565b61184482610e08565b67ffffffffffffffff81111561185d5761185c61108f565b5b61186782546114ac565b6118728282856117ae565b600060209050601f8311600181146118a55760008415611893578287015190505b61189d858261181f565b865550611905565b601f1984166118b38661168f565b60005b828110156118db578489015182556001820191506020850194506020810190506118b6565b868310156118f857848901516118f4601f891682611801565b8355505b6001600288020188555050505b505050505050565b60006060820190506119226000830186611232565b818103602083015261193481856112f0565b9050818103604083015261194881846112f0565b9050949350505050565b7f436f6d706c61696e7420646f6573206e6f742065786973740000000000000000600082015250565b60006119886018836112df565b915061199382611952565b602082019050919050565b600060208201905081810360008301526119b78161197b565b9050919050565b7f4f6e6c79207468652061646d696e2063616e20706572666f726d20746869732060008201527f616374696f6e0000000000000000000000000000000000000000000000000000602082015250565b6000611a1a6026836112df565b9150611a25826119be565b604082019050919050565b60006020820190508181036000830152611a4981611a0d565b9050919050565b7f5374616666206e616d652063616e6e6f7420626520656d707479000000000000600082015250565b6000611a86601a836112df565b9150611a9182611a50565b602082019050919050565b60006020820190508181036000830152611ab581611a79565b9050919050565b6000604082019050611ad16000830185611232565b8181036020830152611ae381846112f0565b90509392505050565b6000604082019050611b016000830185611232565b611b0e6020830184611329565b939250505056fea2646970667358221220b79814c3d20dd4de1969583a2ce296a616e4d4b54b7975e24a4256d64b9c5ec564736f6c634300081b0033",
  "linkReferences": {},
  "deployedLinkReferences": {}
}